:020000040800F2
:1000000070FE00204501000825B601089570010822
:100010001DB10108112A00086D88030800000000C6
:10002000000000000000000000000000ED150308C3
:100030004DB300080000000029DF0108794B0308D8
:100040005F0100085F0100085F0100085F01000810
:100050005F0100085F0100085F0100085F01000800
:1000600009F600085F0100085F0100085F01000851
:100070005F0100085F0100085F0100085F010008E0
:100080005F0100085F0100085F0100085F010008D0
:10009000397E03085F0100085F01000841F600088F
:1000A0005F0100085F0100085F0100085F010008B0
:1000B000914C0308494E03085F0100085F010008E6
:1000C0005F0100085F0100085F0100085F01000890
:1000D0005F010008B9760308897703087978030877
:1000E0005F0100085F010008BD7B03085F01000895
:1000F0005F0100085F0100085F0100085F01000860
:100100005F010008910903085F0100085F01000812
:100110005F0100085F010008594F03088950030878
:100120005F0100085F0100085F0100085F0100082F
:10013000DFF80CD000F0F0FA004800475DB4030887
:1001400070FE00200648804706480047FEE7FEE7AD
:10015000FEE7FEE7FEE7FEE7FEE7FEE7FEE7FEE777
:10016000014C0308310100082DE9F05F054600202D
:1001700092469B4688460646814640241BE0284618
:1001800041464746224600F0C6F853465A46C01A32
:10019000914110D311461846224600F0ADF82D1AB1
:1001A00067EB01084F4622460120002100F0A4F829
:1001B00017EB00094E41201EA4F10104DFDC484684
:1001C00031462A464346BDE8F09F40EA01039B07BB
:1001D00003D009E008C9121F08C0042AFAD203E0BC
:1001E00011F8013B00F8013B521EF9D27047D2B220
:1001F00001E000F8012B491EFBD270470022F6E710
:1002000010B513460A4604461946FFF7F0FF20468C
:1002100010BD10B5044604E00B7800F8013B03B1B3
:10022000491C521EF8D2204610BDCAB2401E10F81A
:10023000011F8A4202D00029F9D100207047421CD8
:1002400010F8011B0029FBD1801A704710B500225D
:1002500000E0521C835C8C5CA34201D1002BF8D1DE
:10026000D8B2E1B2401A10BD30B5044600200346B2
:1002700000E05B1C934203D2E05CCD5C401BF8D0F5
:1002800030BD034611F8012B00F8012B002AF9D1EB
:100290001846704730B505460020034600E05B1C59
:1002A000934205D2EC5CC85C201A01D1002CF6D137
:1002B00030BD70B5064639F0D9FA046805460A2201
:1002C0000021304600F037F82C6070BD30B50B4689
:1002D000014600202022012409E021FA02F59D4276
:1002E00005D303FA02F5491B04FA02F52844151E4A
:1002F000A2F10102F1DC30BD202A04DB203A00FA31
:1003000002F1002070479140C2F1200320FA03F36C
:10031000194390407047202A04DB203A21FA02F06A
:100320000021704721FA02F3D040C2F1200291402F
:100330000843194670472DE9F04791460F4680461D
:100340000446002614F8015B2DB100F009FA00689C
:10035000405DC007F6D12B2D02D02D2D18D0641E84
:100360004A463946204600F0FFF927B13968A142D4
:1003700001D1C7F8008071054FF002040BD540424F
:10038000002803DD39F072FA0460A007BDE8F087A9
:1003900046F48066E4E70028F8DA39F067FA04608A
:1003A0006FF00040F2E72DE9FE4F804681EA03003E
:1003B000C00F0C46009021F0004123F00045B8EB3F
:1003C0000200A94105D24046214690461C460B46F4
:1003D000024623F00040104347D0270DC7F30A0020
:1003E000C3F30A510290401A019040286BDAC3F31C
:1003F000130040F4801B0098924620B10023D2EBFA
:10040000030A63EB0B0B01985946C0F140025046BA
:10041000FFF772FF06460D4650465946019A00F016
:100420008DF910EB08006141002487EA115284EA3B
:10043000E7731A4340D0009A62B3019A012A4FEA47
:10044000075215DC001B61EB02014FF0004202EA8B
:100450000752CDE90042001C41F5801132462B467F
:1004600000F0E0F903B0BDE8F08F40462146F9E71F
:10047000001B61EB0201001C41F5801300185B4179
:100480002018A2F5001747EB030140EAD570B61912
:100490006D4111E06D084FEA360645EAC0754FEA36
:1004A0000752001B61EB0201001C41F58011490855
:1004B0004FEA30000019514132462B4603B0BDE8E7
:1004C000F04F00F0A0B90098012240000023D0EBCB
:1004D000020263EBE073009821464FEAE074B8EB48
:1004E000000061EB0401E9E783F000435BE781F082
:1004F000004158E72DE9FE4F81EA030404F000446F
:1005000021F0004100944FF0000B23F0004350EA2B
:1005100001045ED052EA03045BD0C3F30A54C1F372
:100520000A552C44A4F2F3340194A0FB0254C1F305
:10053000130141F48011C3F3130343F4801301FB4F
:10054000024400FB034E840A970A44EA815447EAB6
:100550008357A4FB076802958D0A05FB07854FEAC0
:10056000932C04FB0C542705029D4FEA065847EADA
:100570001637B5EB08056EEB070C870E920E47EAAF
:10058000811742EA8312A7FB0201B6EB0B0164EB71
:1005900000042B0D43EA0C335E1844EB1C50DA4682
:1005A0005146E7FB0201C5F313044FEA0B3343EA5C
:1005B00014534FEA0432019C43EA0603A4F10C04ED
:1005C0000294009CCDE900B400F02CF903B0BDE822
:1005D000F08F00200146F9E72DE9F04D81EA030490
:1005E00004F0004B21F0004514464FF0000A23F0C0
:1005F000004150EA050220D054EA01021DD0C5F3A3
:100600000A570246C5F31303C1F31300C1F30A5698
:1006100040F4801543F48013A7EB0608101BD64660
:1006200008F2FD3873EB050002D308F1010801E080
:1006300092185B41B8F1000F03DA00200146BDE8D3
:10064000F08D00204FF48011064684460EE0171B03
:1006500073EB050705D3121B63EB050306434CEA56
:10066000010C49084FEA300092185B4150EA01073B
:10067000EDD152EA030012D082EA040083EA0501B8
:10068000084305D0101BAB4106D20122002306E02F
:1006900000224FF0004302E06FF0010253101AEB0A
:1006A00006004CEB085110EB0A0041EB0B01BDE8D2
:1006B000F04D00F0A8B8C1F30A52C1F3130140F2A3
:1006C000FF3341F480119A4202DA0020014670475C
:1006D00040F233439A42A2F2334202DC5242FFF725
:1006E0001ABEFFF709BE000030B5041E71F1000408
:1006F00004DB4FF00044404264EB0101141E73F12F
:10070000000405DB1C464FF00043524263EB040338
:10071000994208BF904230BD064C074D06E0E068A4
:1007200040F0010394E8070098471034AC42F6D338
:10073000FFF702FD8C370508AC370508202A06DBD9
:10074000CB17203A41FA02F043EAE07306E041FA9F
:1007500002F3D040C2F1200291400843194670478D
:1007600000487047481705082DE9F05F8246007879
:10077000002715468B460AF10104B946302801D0FE
:100780009DB113E014F8010B0127782803D05828F5
:1007900001D045B10AE00DB1102D07D10027102579
:1007A00014F8010B02E0082500E00A250026B046F7
:1007B0000EE005FB080005FB06F1012701EB1046E2
:1007C0001FFA80F8B6F5803F00D3B94614F8010B44
:1007D000294600F075F80028EBDABBF1000F05D0D0
:1007E0000FB1641E00E05446CBF80040B9F1000F91
:1007F00006D039F03BF802210160C81EBDE8F09F29
:1008000048EA0640FAE710B5141E73F1000408DA4E
:10081000401C41F1000192185B411A4301D120F0C4
:10082000010010BD2DE9F04D92469B4611B1B1FA81
:1008300081F202E0B0FA80F220329046FFF75CFDD0
:1008400004460F4640EA0A0041EA0B0153465A4665
:10085000084313D0114653EA010019D0C8F14002F1
:100860005046FFF758FD05460E465046594642464B
:10087000FFF742FD084305D0012004E02046394639
:10088000BDE8F08D0020054346EAE0762C4337436F
:100890000A986305E40AA0EB08000022FD0A44EA76
:1008A00047540A3002D500200146E9E70105101936
:1008B0006941DDE9084500196941BDE8F04DA2E74D
:1008C0003A2800D2303820F02002412A01D3A2F188
:1008D0003700884201D34FF0FF30704770B58C1855
:1008E00010F8015B15F0070301D110F8013B2A1144
:1008F00006D110F8012B03E010F8016B01F8016B31
:100900005B1EF9D12B0705D40023521E0DD401F82C
:10091000013BFAE710F8013BCB1A921C03E013F8F5
:10092000015B01F8015B521EF9D5A142D8D300202A
:1009300070BD000000B591B001214FF404702CF09F
:1009400089FF012108462CF065FF4FF440402CF050
:1009500055FF26480AF054F9254801902548029091
:100960000020039003200490002005908020069032
:1009700040000790800008902020099000020A9013
:1009800000200B9001A919480AF0E0F9012117484D
:100990000AF02AF900200C9001208DF834008DF81F
:1009A00035004FF460200E9000200F9003208DF84A
:1009B00040000CA90E484C3800F034F807230122FF
:1009C0000E210B484C3800F055F8072302220F2166
:1009D00007484C3800F04EF803231A460A21044811
:1009E0004C3800F047F811B000BD0000080002408C
:1009F0004C2401408000002021B1826842F00102B5
:100A0000826003E0826822F001028260704721B1B7
:100A1000826842F48072826003E0826822F480720D
:100A20008260704730B502460020002350680F4CAA
:100A300020400D790C6844EA0524204350609068FA
:100A40000B4C2040D1E902542C434D7944EA450433
:100A500020439060D06A20F470000C7C641EE4B2E5
:100A6000234340EA0350D06230BD0000FFFEF0FF98
:100A7000FDF7F1FFF0B504460D4600200021092DD9
:100A800011DDE068A5F10A0606EB4607072606FA1F
:100A900007F18843A5F10A0606EB460603FA06F1BC
:100AA0000843E0600CE0206905EB4507072606FADD
:100AB00007F1884305EB450603FA06F10843206178
:100AC000072A0FDA606B561E06EB86071F2606FA0A
:100AD00007F18843561E06EB860605FA06F1084321
:100AE000606322E00D2A0FDA206BD61F06EB860723
:100AF0001F2606FA07F18843D61F06EB860605FA7D
:100B000006F10843206310E0E06AA2F10D0606EB4F
:100B100086071F2606FA07F18843A2F10D0606EBA9
:100B2000860605FA06F10843E062F0BD21B182684D
:100B300042F4A002826003E0826822F4A002826094
:100B400070470146302904DB392902DC01F00F002F
:100B50007047412901DB462903DD612905DB662950
:100B600003DC01F00F000930F2E70020F0E700009D
:100B70002DE9F04105460E46287800F080004D49E9
:100B80000870307800F080004B490870287800F039
:100B900007004A490870307800F00700484908709B
:100BA00011214848FFF72AFB11214748FFF726FB90
:100BB0004448D5F801100160D5F80510416042485D
:100BC000D6F801100160D6F8051041603B48007866
:100BD0003B49097888420FDD07E039480078401C1E
:100BE00037490870384801F035F8344800783449FE
:100BF00009788842F1DC14E03048007830490978FF
:100C000088420EDA07E02D480078401C2B49087016
:100C10002C4801F01FF829480078294909788842B2
:100C2000F1DB072425E02748005D2749095D88425C
:100C300000DD20E02348005D2349095D884216DA83
:100C4000002409E01F48075D1F48005D1D49085545
:100C50001D480755601C04B2082CF3DB16480778C2
:100C600014480078144908701248077003E0601EA9
:100C700004B2002CD7DA00BF0E4800780E4909787C
:100C8000884202D100F024F801E033F0DBFB094890
:100C900000780E49087009F055FA0C480078287061
:100CA00008480168C5F801104068C5F80500BDE8AE
:100CB000F081000007020020080200200902002045
:100CC0000A02002075290020862900200602002043
:100CD00070B500210024002030E01A4D2D5C05F095
:100CE0000F05184E365C361106EB860605EB4605F9
:100CF000EAB2154D2D5C05F00F05134E365C36112A
:100D000006EB860605EB4605EBB2D5182544E9B29D
:100D1000632904DDA1F16405E9B2012400E00024A7
:100D20000A2591FBF5F605FB16150A2691FBF6F64A
:100D300005EB0615034E3554451C28B21028CCDBB4
:100D400070BD0000752900208629002010B513F021
:100D5000DFF9154890F8AC0E1449096808441349A6
:100D600008600021124880F86C1716E0104890F8CF
:100D70006C17A0F5A97000EBC10100F697300A6866
:100D800002604968416000F091FA094890F86C07E8
:100D9000401CC1B2064880F86C17054890F86C07F3
:100DA0000628E3DB10BD0000B82900200002002067
:100DB000B839002010B513F0BFF9154890F8E10ECE
:100DC000144909680844134908600021124880F852
:100DD0006C1716E0104890F86C17A0F21D1000EB8D
:100DE000C10100F662300A6802604968416000F0A3
:100DF0005DFA094890F86C07401CC1B2064880F8BB
:100E00006C17054890F86C070628E3DB10BD00005E
:100E1000B829002000020020B839002010B51A4877
:100E2000B0F89317A0F58050B0F8130F814229DA7B
:100E300013F050FA154890F8170F1549096808443F
:100E4000134908600021104880F86C1715E00E481F
:100E500090F86C17E43800EBC10100F629300A68FD
:100E600002604968416000F021FA074890F86C0779
:100E7000401CC1B2044880F86C17034890F86C0716
:100E80000628E4DB10BD0000B8390020B829002096
:100E90000002002010B51D4890F84A0C40F02001D7
:100EA0001A4880F84A1C13F079FA194890F84F0F45
:100EB000184909680844174908600021164880F855
:100EC0006C1715E0144890F86C17AF3800EBC101AF
:100ED00000F6F4200A6802604968416000F0E6F913
:100EE0000D4890F86C07401CC1B20B4880F86C1795
:100EF000094890F86C070628E4DB044890F84A0C8F
:100F000020F02001014880F84A1C10BDB86900207B
:100F1000B829002000020020B839002010B51A4876
:100F200090F84517A0F5805090F8810F814229DA9A
:100F300013F048FA154890F8840F154909680844D9
:100F4000134908600021104880F86C1715E00E481E
:100F500090F86C177A3800EBC10100F6BF200A68E0
:100F600002604968416000F0A1F9074890F86C07F9
:100F7000401CC1B2044880F86C17034890F86C0715
:100F80000628E4DB10BD0000B8390020B829002095
:100F90000002002010B52E48D0F8230D2D4908601E
:100FA00000212D4880F86C1716E02B4890F86C173C
:100FB000A0F2871000EBC10100F6CC300A68026095
:100FC0004968416000F072F9234890F86C07401CB2
:100FD000C1B2214880F86C171F4890F86C070628AA
:100FE000E3DB00211D4880F8441C1B48B0F895172E
:100FF0001748B0F8B60F814229DA13F05FFA1448A7
:1010000090F8BA0F13490968084412490860002192
:10101000114880F86C1715E00F4890F86C174438A9
:1010200000EBC10100F689200A680260496841604E
:1010300000F03CF9084890F86C07401CC1B2064823
:1010400080F86C17044890F86C070628E4DB10BDA4
:10105000B829002000020020B8390020B86900201B
:101060007CB529484488294815F022FD274BDA78B9
:10107000997818880EF00CFC25494881B4F5006F6A
:101080003DDA4FF4004000EB0415014601EB04107B
:101090001F4A0A32102139F053FB1D490C800020F1
:1010A0004880009001904FF4804101EBC4006A46F3
:1010B000082139F045FB14484088401C12494880FB
:1010C000C4F3090412480088B0F5806F04DA1048B0
:1010D0000089B0F5804F09D00D480088B0F5806FC9
:1010E00011DB0B480089B0F5C04F0CD108481A300D
:1010F00000EBC400009901600199416003E05A21AE
:10110000044880F846177CBDBD4000201C760020B6
:10111000E3820020B839002010B514F067F91448B4
:1011200090F8F20F13490968084412490860002139
:10113000114880F86C1715E00F4890F86C17001DE7
:1011400000EBC10100F641200A6802604968416075
:1011500000F0ACF8084890F86C07401CC1B2064893
:1011600080F86C17044890F86C070628E4DB10BD83
:10117000B829002000020020B839002010B54FF037
:10118000FF3014F005FA144890F8C00313490968B9
:101190000844124908600021114880F86C1715E0D6
:1011A0000F4890F86C17343000EBC10100F61120A5
:1011B0000A6802604968416000F078F8084890F8D1
:1011C0006C07401CC1B2064880F86C17044890F8C0
:1011D0006C070628E4DB10BDFB3500200002002070
:1011E000B839002010B514F009FA144890F8270413
:1011F000134909680844124908600021114880F821
:101200006C1715E00F4890F86C17713000EBC101B6
:1012100000F6D4100A6802604968416000F046F8A0
:10122000084890F86C07401CC1B2064880F86C175B
:10123000044890F86C070628E4DB10BDFB3500205D
:1012400000020020B839002010B514F063FA1448E9
:1012500090F86104134909680844124908600021A4
:10126000114880F86C1715E00F4890F86C17A630FD
:1012700000EBC10100F69F100A68026049684160F6
:1012800000F014F8084890F86C07401CC1B20648FA
:1012900080F86C17044890F86C070628E4DB10BD52
:1012A000FB35002000020020B839002070B58F48BF
:1012B00090F8570700B170BD8C4890F8450A00B906
:1012C000F9E78B48407800B9F5E7884890F85F0760
:1012D00000B1F0E70024854890F8450A00F00100CD
:1012E00018B183484078204484B2804890F8450A79
:1012F00000F0020018B17E484078204484B27B4858
:1013000090F8450A00F0040018B17948407820446C
:1013100084B2764890F8450A00F0080018B1744885
:101320004078204484B22546704890F86C0706281F
:101330005CD2DFE800F003061B30455A002400258C
:1013400055E06C48B0F8AF0D00B9B4E76948B0F8A3
:10135000AF1D6648B0F88F07081A684385B2634826
:10136000B0F88F07401E604384B240E0624890F8B6
:10137000FD0400B99FE7604890F8FD145B4890F8C1
:101380007907081A401E684385B2584890F87907D3
:10139000604384B22BE0584890F82E0500B98AE7E4
:1013A000554890F82E15514890F84207081A401EEB
:1013B000684385B24D4890F84207604384B216E016
:1013C0004D4890F82F0500B975E74B4890F82F1558
:1013D000464890F86407081A401E684385B243489F
:1013E00090F86407604384B201E064E700BF00BF87
:1013F000424800682044414908603C4890F86C0726
:10140000E8B93F4890F84A0C00F02000B8B93D48D0
:1014100006F0A4FA20B13B49A1F1E10033F052F803
:10142000324890F8610750B13648093006F096FA14
:1014300028B134490931A1F1EA0033F043F82B48CF
:1014400090F8450A00F0010008B100F065F927485E
:1014500090F8450A00F0020030B1294890F8430C9A
:10146000012801D000F058F9204890F8450A00F012
:10147000040008B100F050F91C4890F8450A00F04B
:10148000080008B100F048F91C48006828441B49CE
:101490000860164890F86C0728BB154840781A2851
:1014A00003D10021164880F8441C154890F84A0CD6
:1014B00000F02000B8B9134806F050FA20B11149E5
:1014C000A1F1E100FFF754FB084890F8610750B123
:1014D0000C48093006F042FA28B10A490931A1F155
:1014E000EA00FFF745FB00BFE5E60000B839002041
:1014F000FD430020B8290020FB3500200002002019
:10150000B8690020BE5C00203EB5214890F84D0728
:1015100000283CD11E4890F84A07022837D01C48C2
:1015200090F8570710BB1A4890F85D0708B10424DB
:1015300000E0002417480168009141680191007A99
:101540008DF80800144890F84B0C00F0010070B1C1
:101550001248D0F81E00CDF8010011496846FFF787
:1015600007FB0E48DDF80110C0F81E100FE00B4815
:10157000173020440068CDF8010009496846FFF79C
:10158000F7FA064817302044DDF8011001603EBD2F
:10159000B839002090000408B8690020B840002045
:1015A0009900040870B504460126244890F8750790
:1015B0004440224890F87607444000250EE004EAB3
:1015C000060038B105EBC5011D4A8818A2F21711B3
:1015D000FFF7CEFA7006060E681CC5B2082DEEDBCA
:1015E000BCB9184901F1FC00FFF7C2FA164890F89F
:1015F000460C00F0080060B1104890F8610718B977
:101600000E4890F84B0720B10E4901F1F300FFF7A7
:10161000AFFA0C4901F18700FFF7AAFA09495A31DC
:1016200001F13600FFF7A4FA044890F8761780F825
:101630007717002180F8761770BD0000B8390020B8
:10164000F45C0020DD5B0020B869002010B515F0C7
:1016500007FA144890F89604134909680844124997
:1016600008600021114880F86C1715E00F4890F8C9
:101670006C17DB3000EBC10100F66A100A680260EB
:1016800049684160FFF712FE084890F86C07401C5B
:10169000C1B2064880F86C17044890F86C07062819
:1016A000E4DB10BDFB35002000020020B83900202B
:1016B00010B515F0E9F9154890F8CB0414490968FC
:1016C0000844134908600021124880F86C1716E09E
:1016D000104890F86C1700F5887000EBC10100F617
:1016E00035100A68026049684160FFF7DFFD09486C
:1016F00090F86C07401CC1B2064880F86C1705488A
:1017000090F86C070628E3DB10BD0000FB350020D5
:1017100000020020B839002010B5724890F85D072B
:1017200060B1704890F86C07012807D06E48407887
:101730006E49096808446D49086010BD6B4804682B
:101740002DF010FB69480460664890F8390758B1DD
:10175000674890F8440C38B937F0CCFF62484078BD
:10176000204462490860BBE0614890F8430C0028BF
:1017700041D05D482B30C07E00F0800060B15A48F7
:101780002B3090F82D0058492B31C8760846C07E82
:1017900040F08000C8760BE053482B3090F82D00C5
:1017A00051492B31C8760846C07E20F08000C876AB
:1017B0004D495831A1F11200FFF7DAF94A493D319C
:1017C0004C4802680A6042684A60007A0872A1F1D7
:1017D000120048490A6842624A688262097A80F8BF
:1017E0002C1000F12D01434802680A6042684A60EB
:1017F000007A087272E03E4890F8440C48B13A48CA
:10180000C07900286AD03C4937485830FFF7B0F912
:1018100064E03548807890B133482B30407A00F04E
:10182000080060B92F4890F87B0740B92D4890F820
:101830004A0720B931492C482B30FFF799F92A483B
:10184000C07868B128482B30407A00F083002649E0
:101850002B3148722849483123483430FFF788F942
:101860002148007928B1244912391F483D30FFF73B
:101870007FF91D48407900B31B480D38807838B98E
:10188000184890F86C0718B9174840781A2814D0EF
:1018900019496C311448463032F014FE12482B308E
:1018A000C07E00F0800040B10F48463011490A6800
:1018B00002604A684260097A01720B48807928B157
:1018C0000D49093108484F30FFF752F90648C079F1
:1018D00020B1094904485830FFF74AF937F00AFFA8
:1018E00000BF2AE7B8390020FD4300200002002095
:1018F000B869002090000408EF5B002099000408FC
:10190000002070472DE9F04106460C462EB92F48BD
:1019100090F8A20C00F00F0040B9002E53D02B48D5
:1019200090F8A20C00F0F00000284CD0277800209E
:101930002070264890F8A20C00F00F051DB923482E
:1019400090F8A20C0509012D06D0022D12D0032D0E
:101950001FD0042D35D128E0607800F00F00052855
:1019600003DB1B492046FFF703F9607800F0F00025
:10197000607026E0657800206070742D04DD1549E4
:101980002046FFF7F5F803E0242D01DD50206070BC
:1019900017E0607800F0F00500206070502D03DB48
:1019A0000C492046FFF7E4F80BE0607800F0F00502
:1019B00000206070002D03DD06492046FFF7D8F8AF
:1019C00000BF00BF2770BDE8F0810000B8290020EB
:1019D000A2000408AB00040810B5044631480078A2
:1019E00030B920224F213048FEF701FC07F079FB87
:1019F0002E4890F8850700F01000002839D12F2CD0
:101A000003D13020FFF7E8FF30242E2C1AD12748CD
:101A100090F84307A0B90121244880F843172148D2
:101A2000007830BB3020204981F84D002E2081F80D
:101A30004E00002081F84F0002201A49087010BDA6
:101A40000020FCE7194890F8430790B1302C10DBD8
:101A5000392C0EDC154890F84307032801DD0020DF
:101A6000EDE7124890F84307401CC1B20F4880F8D8
:101A700043170C48007828B14E220B49491C481ED8
:101A8000FEF7A3FB084880F84E400020064981F885
:101A90004F0004480078401C02490870084600784E
:101AA000CDE70000B902002025760020B8390020DB
:101AB00010B501460A12CBB202F00F00141104EB6C
:101AC000840400EB440000EBC00404EB00104FF66C
:101AD000FF7404EA800203F00F001C1104EB84047D
:101AE00000EB4400104480B210BD00002DE9FF4718
:101AF00082460C4691461D46DDE90D780C9E134842
:101B000090F8660C012802D0022812D108E02B467A
:101B10004A460FA150468DE8D00137F081FE11E012
:101B20004B46224612A150468DE8E00137F078FE80
:101B300008E04B462A4606A150468DE8D00137F012
:101B40006FFE00BF00BFBDE8FF870000B82900207E
:101B5000253032782D253032782D323025303278CC
:101B600020253032783A253032783A2530327800E4
:101B70003230253032782D253032782D25303278AC
:101B800020253032783A253032783A2530327800C4
:101B90002DE9F047034600252846294606221CE089
:101BA0009C5C992C16DC9C5C04F00F049D5C2D1150
:101BB00005EB850504EB45044FF0640C4FF000097C
:101BC0008046A8FB0C6A01FB0CA700FB0977A01953
:101BD00047EBE471A2F1010422B2002AE0DABDE889
:101BE000F08730B502460C460023062113E0505C16
:101BF00099280EDC505C00F00F00555C2D1105EBB0
:101C0000850500EB450003EBC30505EB031500EB71
:101C10008503481E01B20029E9DA236098B230BD7D
:101C200030B500240F30002101E0401E491C10296E
:101C300002DA0578002DF8D009E005782D072A0E84
:101C400005782B091D1905701446401E491C1029E2
:101C5000F3DB30BD30B50024002109E005782D0705
:101C60002A0E05782B09151905701C46401C491CC5
:101C70001029F3DB30BD0146072005E04A1C125C49
:101C800002B103E0421E10B20028F7DA00BF421C86
:101C900010B200280BDD421E4B1C9A5C0F2A04DA9E
:101CA0000122C2EB400210B201E0420010B20A78F9
:101CB00002F080020AB1421C10B2704708B501461A
:101CC000002000900348009000980844009000987D
:101CD000008808BD006C004008B500220092044A4C
:101CE0000092009A02440092009A116008BD000020
:101CF000006C004010B504461548B0F8B80300F475
:101D0000007018BB44B113491348408F088008463F
:101D1000007840F0800008700D4890F8B80300F09B
:101D20000100C0F10800C0EBC00000EB40020A490E
:101D300085390A48FEF749FA38F056FF0448B0F8EA
:101D4000B80340F400710248A0F8B81310BD0000B9
:101D5000B8690020E0010020386D0020B824002080
:101D600010B50F4890F87F0C00F007041CB10D4827
:101D700090F8460708B1002010BD611EC8B20DF0F2
:101D800063FD611EC8B205212FF0E3FE0020064965
:101D9000087006490870064908800120ECE7000039
:101DA000B8290020B83900207D0100207C010020E6
:101DB0008001002070B5B34890F87F0C00F0070553
:101DC0001DB1B14890F8460708B1002070BDE7E0AA
:101DD000691EC8B203F096FC30B1691EC8B22CF07F
:101DE00025F90446401C08B90020EFE7A748008801
:101DF000B8BB0020A6490870A6490870A64908701B
:101E0000012C10D0022C12D0062C02D0462C16D158
:101E100011E0691EC8B211212FF09BFE02209F49DC
:101E200008700020D2E702209C49087009E00020D9
:101E30009A49087005E001209849087001E00020E7
:101E4000C4E700BF8F4890F87F0C00F0070093496B
:101E5000097801F00F0140EA01118A4880F87F1CDF
:101E600030E0FFE78D48007802282BD1042C1FD1E9
:101E70008748007880F0030085490870084600789C
:101E800048B987488078532805D18548008840F2B2
:101E9000012188420BD0691EC8B20DF0D5FC552136
:101EA000794880F846170020784908808EE778E066
:101EB0007648B0F90000012804DD754800786040DC
:101EC000734908707348007838B17048B0F9000061
:101ED00070490978401A012804DC71496B4AB2F94B
:101EE00000208C54302C01DB392C01DD2E2C0AD142
:101EF0006948007818B965480078674908706348F0
:101F000000786449087061480088401C00B25F494D
:101F1000088062480078012819D1084600880A28FC
:101F200015D15D48007818B9084600785A490870FC
:101F300056480078574908702E215448B0F90020BF
:101F40000088401C00B2514B1880554881544F48BE
:101F5000B0F900001E2801DA0A2C03D100204B49F9
:101F6000088033E70D2C1BD14C48007818B94C4839
:101F70000078022807D049480078012804D1484851
:101F80000078462800D10CE0691EC8B20DF05CFC58
:101F900055213D4880F8461700203C49088015E748
:101FA00016E700BF002006F0E7FE691EC8B20DF07C
:101FB0004BFC00203B49087034490880002600256E
:101FC0003548007833490978884259DA324804782C
:101FD00032E04EB93248005B43F23001884201D012
:101FE000012000E00020064626B300212E48A0F87C
:101FF0001F122B48055D2E2D06D12448008818B9E4
:1020000001202249088008E02048008828B11F48A4
:102010000088401C00B21D4908801C48B0F900002F
:10202000042807DC2048A0F81D520146B1F81D0223
:1020300017F032F8601C04B2164800788442C8DDFC
:10204000002012490880012000F0CEF90E48B0F8B7
:102050008D07432804D00C48B0F88D0745280FD1D0
:1020600000211148A0F81F1240F2D471A0F81D12EF
:102070000121054880F8471724F05AFE0120A5E603
:102080000020A3E6B8290020B839002080010020F4
:102090007E0100207D0100207C01002082010020C3
:1020A0008C230020BC020020B859002070B5834862
:1020B00090F8810C00F00705814890F8460790B928
:1020C0007F48B0F88D0742280DD07D48B0F88D07C5
:1020D000462808D07A48B0F88D07472805D17948B6
:1020E00000781F2801D0002070BD002679E05DB186
:1020F000691EC8B203F006FB30B1691EC8B22BF0EE
:1021000095FF0446401C08B90020EDE7E4B26E4894
:1021100001680068401C6C4A10606C4844541046CA
:102120000068FE2803DB002011460860DCE70A2C6B
:1021300011D006DC022C09D0032C31D0092C40D15F
:102140002DE00D2C2AD0242C3BD100E000BF002034
:102150005D490860C8E75C480068801E5B49085C10
:102160000D280AD158480068801E57490860002091
:102170005649554A126888540EE053480068401E7C
:1021800051490860002051494F4A126888544E480E
:10219000006808B90020A7E7012621E000BF00BFC2
:1021A00049480068401E4849086000204749464A9F
:1021B000126888544448006808B9002094E7012652
:1021C0000EE0202C01DB7E2C09DD3F480068401E1C
:1021D0003D49086000203D493B4A1268885400BFD1
:1021E00000BF002E83D0002006F0C6FD0020384935
:1021F00008703348B0F88D0747281CD13148007863
:10220000C8B92F4991F86E1701F0040109B10621F0
:1022100000E0042108462D4919F0B2FE06F072FFD5
:1022200006F04EFF0822042128480BF097F8002002
:102230002549086058E7244800782649087000209E
:10224000214908602449234A1278891A481E2149E5
:102250000A781E49FDF7B9FF0121194880F848178F
:1022600004F0F2F91648B0F88D0743281AD0144844
:10227000B0F88D07452815D000211848A0F81D1288
:102280000F4880F85617B0F88D07442804D1144839
:102290000078144908700FE0084890F8490C11497B
:1022A000087009E000210D48A0F81F1242F21071D9
:1022B000A0F81D1224F03CFD012015E7B8290020EC
:1022C000B8390020B702002084010020AA23002092
:1022D000BC020020B902002075760020B859002009
:1022E000C7020020B002002030B502460B46002095
:1022F000591E0EE0C40004EB4004555C04EB2510AD
:10230000C40004EB4004555C05F00F0560194C1E39
:1023100021B20029EEDA30BD10B50446112109487A
:10232000FDF76CFF074854F8011F016061684160C8
:10233000FFF776FC03480168216040686060641E16
:1023400010BD000075290020D0F80220C0F801203F
:10235000C288A0F80520017AC1710022027270477C
:1023600010B5044611210948FDF748FF074854F805
:10237000011F016061684160FFF76CFC0348016860
:10238000216040686060641E10BD00007529002057
:10239000072105E04A1E431C9B5C421C5354491E06
:1023A0000029F7DC002242707047000008210C4A27
:1023B0001160012803D10A210A4A11800EE0022887
:1023C00003D12821074A118008E0032803D15021B6
:1023D000044A118002E00A21024A1180704700007D
:1023E000141401406E00002000B50346D8B2FFF778
:1023F000DDFF002000BD00002DE9FC5F834689461B
:1024000016461C46082E00D90826002C3ED020482F
:10241000D0F800A04FF00008601E04B229E0A5B279
:1024200005EB080085B26D1005FB09A0184908608E
:10243000314668462CF0ACFB32466946584607F0F8
:1024400061FE0746002F03DA2CB2601E04B210E0D2
:1024500037B10FFA85F808F101000FFA80F808E0AB
:102460000B480068801B0A490860681C80B2BDE800
:10247000FC9FA045D3DD06480068801B0449086026
:10248000002F03DD08460068484408600020EEE79E
:10249000000200202DE9F84381460F4690461C4675
:1024A000B9F13C0F74D009DCB9F1340F11D0B9F196
:1024B000350F0DD0B9F1360F69D10DE0B9F1440FE8
:1024C0000CD0B9F1450F7DD0B9F1460F7BD160E05A
:1024D0007EE00020BDE8F8830020FBE73E48B0F82E
:1024E000850700F4006000284ED1F8B28DF8000096
:1024F000022608F00100A0B3384890F8090418B982
:1025000030208DF8010033E02CB1202C03DCE0B248
:102510008DF80200032631208DF801001422314687
:1025200068462BF077FA002509E005EB45112C4AA7
:10253000881804221F212BF06DFA681CC5B2082DE3
:1025400005DA05EB45102649085C0028EDD100208E
:102550008DF800000422012168462BF05BFA01206F
:10256000B8E7FFE708F0020010B132208DF8010053
:102570002CB1202C03DCE0B28DF8020003261422DB
:10258000314668462BF046FA0120A3E700E01AE046
:102590001EE03FB13846FDF752FEC6B2202E02DDE6
:1025A000202600E000260C48B0F8850700F4006003
:1025B00028B908F0FF02314638462BF02BFA0120EB
:1025C00088E7FFE704E0494606A035F0B5FA00BF0A
:1025D00000BF00207EE70000B8390020B859002075
:1025E000C15D0020436F6D6D616E642025640A003B
:1025F00010B588B0044620461D2C7DD00CDCA0F11F
:102600000F000D2879D2DFE800F0317878302B7890
:102610007878353947433F00502841D006DC3328CD
:1026200030D03D2809D03F2867D10DE0512878D01F
:10263000522875D05328F7D1D0E014F07DFB0090DC
:102640008248008808B010BD8148B0F8850700F4C2
:10265000006020B98022002108462BF0DBF9F1E070
:1026600016F0FAFF2BF0C0F8ECE0EBE016F0E2FF1A
:102670000020E7E700200DF005F9E3E001200DF070
:1026800001F9DFE00020DDE70320FFF78FFED9E04E
:102690000220FFF78BFED5E00120FFF787FED1E097
:1026A00001A839F0A0F80798B0F5FA6F02DA002017
:1026B000079003E00798A0F5FA6007900A210498B4
:1026C00090FBF1F201FB12000A22049991FBF2F156
:1026D00000EB01105F4908700A21069890FBF1F2A7
:1026E00001FB12000A22069991FBF2F100EB0110A6
:1026F000584948700A2101E09CE09EE0079890FB51
:10270000F1F201FB12000A22079991FBF2F100EBB2
:102710000110504988700598C870012092E700E0C8
:102720002EE001A839F05FF80A21039890FBF1F23E
:1027300001FB12000A22039991FBF2F100EB011058
:10274000454908700A21029890FBF1F201FB120042
:102750000A22029991FBF2F100EB01103E49487008
:102760000A21019890FBF1F201FB12000A22019963
:1027700091FBF2F100EB011037498870002061E70E
:1027800001A839F030F83348807800F00F00314963
:102790008978091101EB810100EB410000F5FA6035
:1027A00007902C48407800F00F002A494978091119
:1027B00001EB810100EB410006902648007800F013
:1027C0000F0024490978091101EB810100EB410058
:1027D000049001A839F033F8002033E701A839F05C
:1027E00002F81D48007800F00F001B490978091114
:1027F00001EB810100EB410003901748407800F0A5
:102800000F0015494978091101EB810100EB4100E6
:1028100002901148807800F00F000F498978091163
:1028200001EB810100EB4100019001A839F007F8AC
:10283000002007E704F0FCF804E7214607A035F084
:102840007BF900BF00BF0020FCE60000FA02002078
:10285000B83900200000002004000020436F6D6D97
:10286000616E645F312025640A0000002DE9F84F95
:102870008046894615461E46DDF828A03748006880
:102880000090CB46A8F10104B8F1030F63DCBAF164
:10289000000F02D00020AAF80000F5B909E02EB11F
:1028A0002E4801680098081AB04202D90020BDE8FD
:1028B000F88F04EB440000EBC410294901EB001031
:1028C000C06804EB440101EBC411254A02EB01117D
:1028D00089688842E3D00120E9E7681C88B90020B4
:1028E00004EB440101EBC4111D4A02EB01118860A5
:1028F00004EB440101EBC41102EB0111C86001209B
:10290000D5E7B9F1000F15D104EB440000EBC4107A
:10291000134901EB0010C06804EB440101EBC41142
:102920000F4A02EB01118968884201D00120BEE7FD
:102930000020BCE700270AE032465946404634F002
:1029400023FB08B938B2B2E70BF1010B7F1CAF4291
:10295000F2DB2846ABE70020A9E70000DC000020FE
:10296000640500202DE9F04705460E4617469946B6
:10297000B046032D0EDC002407E098F8001028462E
:1029800034F0A2FC08F10108641CBC42F5DB012014
:10299000BDE8F0870020FBE770B5002500BF0E48BA
:1029A000806800F400544FF47A7039F02BF90A482B
:1029B000806800F40056B44204D16D1C1CB1022D95
:1029C00001DD02E00025322DE9DB00BF0CB901205A
:1029D00070BD0020FCE700000010014030B5024649
:1029E00000200FE00B7801248440234023B13124E0
:1029F000431D064DEC5403E03024431D034DEC54BD
:102A0000431C18B20828EDDB30BD00008F76002093
:102A100000BFFEE70146CAB20B1243EA022070472C
:102A200010B500200349086003202FF02DFB012082
:102A300010BD0000780100202DE9F04106460C464B
:102A400000271FE002E0052039F0DCF8104800689C
:102A50000028F8D000200E490860402C01DD4025F8
:102A600000E02546F0192A46C02135F001FF29462D
:102A700001202FF033FB01202FF05EFB601BC4B25E
:102A8000781987B2002CDDDC0120BDE8F081000060
:102A90007401002008B50020009022E197480088CA
:102AA00000F00F00964908700846007800287CD195
:102AB00094480068944908800846008800F0300077
:102AC000924908809048008800F440508E49088060
:102AD0008C4909684BF6BF7201EA020080F400508D
:102AE00080F0200040F4004141F08001854A1160EF
:102AF0008248008800F0100090BB1046006848F63D
:102B00000F7108401146086014F07EFC7D49096889
:102B10004BF6BF7201EA02007B49098801F480513B
:102B200009B180F480507849098801F4005109B155
:102B300080F400507549098801F0100109B180F056
:102B400010007249098801F0200109B180F02000CD
:102B500081B241F4004141F080016A4A116008BD30
:102B6000FFE76848006880B20090BDF8000000F4FC
:102B70000060B0B363480068C0F30E0048F68F7180
:102B80000840604908602FF0CBFF5E4909684BF6AA
:102B9000BF7201EA02005C49098801F4805109B161
:102BA00080F480505849098800E056E001F4005153
:102BB00009B180F400505549098801F0100109B1AC
:102BC00080F010005149098801F0200109B180F01E
:102BD000200081B241F4004141F08001494A116076
:102BE000BDE7FFE7BDF8000000F40040002878D002
:102BF00044480068C0F30E0048F68F710840414910
:102C0000086019F095F93F4909684BF6BF7201EA6F
:102C100002003D49098801F4805109B180F48050D7
:102C20003949098801F4005109B180F4005037494D
:102C3000098801F0100109B180F0100033490988BA
:102C400001F0200109B180F0200081B241F400417F
:102C500041F080012B4A116081E7294800782C4916
:102C600001EB8000D0F8000C80B20090BDF80000AD
:102C700000F40040C0B12248007801EB8000D0F899
:102C8000000CC0F30E0048F68F7108401C4909780B
:102C90001F4A02EB8101C1F8000C19490978491E4D
:102CA0001C4A52F821008047BDF8000000F0800067
:102CB000B8B113480078164901EB8000D0F8000C39
:102CC00048F60F7108400E490978114A02EB81015C
:102CD000C1F8000C0A490978491E0F4A52F8210030
:102CE000804708484430006880B20449088000F4F6
:102CF000004000287FF4D2AE00BF30E7600400201F
:102D00003C050020005C00405005002052050020DA
:102D100000500040880400206C0400200FB42DE90E
:102D2000F047A6B007464FF0000AD44801680F915B
:102D300041681091007A8DF84400D04801680991EB
:102D400041680A91007A8DF82C00CC480168069100
:102D500041680791007A8DF82000C8480168039106
:102D600041680491007A8DF81400C448016800910C
:102D700041680191007A8DF80800BDF8BC0042F26C
:102D8000107188421FDABE48B0F89357BDF8BC00F6
:102D9000A0F59850893881B2B948A0F893172F222E
:102DA00000F647111AA8FDF710FA2BF07DF9B54887
:102DB00090F823A0B248A0F893572F221AA9B1483F
:102DC000FDF703FAC5E0BDF8BC00A0F51C501138B2
:102DD0001FFA80F8AA48B0F89357A0F8A9872BF0FB
:102DE000D3FCA848983090F82210A548A0F8931773
:102DF00090F8850700F0020000285ED09F48016827
:102E0000099141680A91007A8DF82C009E4890F84B
:102E10002B2400F6D4510DF12500FDF7D6F9974883
:102E20000168069141680791007A8DF82000DDF86D
:102E3000BF000690DDF8C30007909DF8C7008DF82D
:102E400020009DF818008DF824008C48016803913B
:102E500041680491007A8DF8140007E009A906A8DA
:102E600031F030FB894903A8FDF782FE09A906A8C5
:102E700007F0E2F80028F1DA03A804F06FFD00285B
:102E800055D07E480168009141680191007A8DF823
:102E900008007D4890F82B2400F6C5510DF1010083
:102EA000FDF793F903A9684618F078FA9DF8000039
:102EB00080F080008DF8000039E0714890F88507B7
:102EC00000F0040098B36D480168009141680191D9
:102ED000007A8DF808006C4890F82B2400F6C55154
:102EE0000DF10100FDF771F904208DF80000634831
:102EF0000168069141680791007A8DF82000DDF89D
:102F0000D1000690DDF8D50007909DF8D9008DF826
:102F1000200006A9684618F041FA002168462DF005
:102F200081FB9DF8000080F080008DF800002F22CA
:102F300054491AA8FDF749F92BF0B6F8514890F812
:102F400023A04F48A0F893572F221AA94D48FDF708
:102F50003CF90126002481E00AEA0600002879D025
:102F6000474890F87497112200F64D2115A8FDF7F7
:102F70002CF9434880F874472BF0C0FE3F480168A5
:102F8000129141681391007A8DF850004048B0F8D2
:102F90000D10ADF84910C07B8DF84B003748016823
:102FA0000F9141681091007A8DF8440032A807C84B
:102FB0000FAB07C33648007C00F00100A8B904201D
:102FC0008DF8480012A90FA818F0E8F900210FA801
:102FD0002DF028FB0FA90120FEF794FC9DF83C0082
:102FE00040F080008DF83C002CE00DF1BF010FA8EF
:102FF00018F0D4F900210FA82DF014FB0FA901201F
:10300000FEF780FC9DF83C0020F080008DF83C002D
:1030100069460FA8FDF7ACFD0FA807C80CAB07C3A6
:103020001C4912A8FDF7A4FD04208DF8480012A940
:103030000CA80BF00FFE0CA82DF08CFB0CA90FA810
:1030400031F040FA0E4880F87497112215A9104803
:10305000FDF7BBF87006060E601CC4B2082CFFF624
:103060007BAF0F983860109878609DF844003872F4
:1030700026B0BDE8F0075DF814FB000090000408DE
:10308000B8390020FF420020FB35002099000408D9
:1030900005440020BD0004082DE9F047EEB00646C7
:1030A0004FF4807108A8FDF7A9F8FE4801686891FF
:1030B00041686991007A8DF8A801FA482538016CB9
:1030C0006591416C669190F848008DF89C01F54837
:1030D0005A300168629141686391007A8DF89001DD
:1030E000F148B0F8A987B0F89397002766BBEF487E
:1030F00001686B9141686C91007A8DF8B401EB48DE
:1031000001685F9141686091007A8DF88401E5481B
:10311000363001685F9141686091007A8DF88401D2
:10312000E3495FA818F03AF99DF87C0180F080002F
:103130008DF87C01DC4890F8610728B19DF87C018E
:1031400080F080008DF87C0100242AE2D7480168D5
:103150005C9141685D91007A8DF87801D3480168EF
:10316000599141685A91007A8DF86C01CF480168F5
:10317000569141685791007A8DF86001CB480168FB
:10318000539141685491007A8DF85401C748016801
:10319000509141685191007A8DF84801C4EB441177
:1031A000C4480844008841F2883188427EDDC4EB7F
:1031B0004411C0480844008842F21071884276DD0C
:1031C00047F00107C4EB4411BA4808440088A0F551
:1031D0001C50113881B2B448A0F8A9172BF0D4FACA
:1031E000B148B0F8B717A0F89317002E62D190F845
:1031F000850700F0020000285DD0AC4801685C91B2
:1032000041685D91007A8DF87801AB4890F82B24E5
:1032100000F6D4510DF27110FCF7D7FFA3480168F6
:10322000599141685A91007A8DF86C01C4EB4411B0
:10323000A048084450F8031F599141685A91007AF8
:103240008DF86C019DF864018DF870019748016854
:10325000569141685791007A8DF8600107E05CA9AA
:1032600059A831F02FF9954956A8FDF781FC5CA9C2
:1032700059A806F0E1FE0028F1DA56A804F06EFB2A
:1032800000285BD089480168539141685491007AC5
:103290008DF85401884890F82B2400F6C5510DF2A2
:1032A0004D10FCF792FF56A953A801E077E139E0F1
:1032B00018F074F842E07C4890F8850700F00400AC
:1032C00078B37A480168539141685491007A8DF837
:1032D0005401794890F82B2400F6C5510DF24D1099
:1032E000FCF773FF04208DF84C0170480168599178
:1032F00041685A91007A8DF86C01C4EB44116D4815
:10330000084450F8151F599141685A91007A8DF878
:103310006C0159A953A818F041F8002153A82DF0C9
:1033200081F90BE0C4EB4411624808440088A0F521
:103330009850893881B25C48A0F893172AF0B4FEFF
:10334000C4EB44125B4811181F2248A8FCF73DFF4C
:1033500013224BA96846FCF738FF052048A90EC97F
:1033600030F090FA0546002E7CD1002D31DBC5EB04
:103370004512534811181F2248A8FCF726FF1322B4
:103380004BA96846FCF721FF05A848A90EC9FFF71D
:10339000C5FC05A807C850AB07C3C5EB4511484895
:1033A0000844C1686B9101696C91007D8DF8B4018E
:1033B000C5EB451242481044C11C6BA817F0EEFF44
:1033C0009DF8AC018DF8400150A96BA831F07AF856
:1033D00012E0C4EB441137480844C1686B9101699D
:1033E0006C91007D8DF8B401C4EB44123148104457
:1033F000C11C6BA817F0D2FF9DF8AC018DF84C01F1
:1034000053A96BA831F05EF85FA96BA817F0C6FF4F
:103410002C496BA80BF01EFC00216BA82DF002F9C3
:103420006BA90120FEF76EFA1E4825386B990164DE
:103430006C9941649DF8B41180F8481025306B995F
:1034400001606C9941609DF8B4110172002D0ADB96
:10345000C5EB45121A49114401F115006BA9FDF79E
:1034600087FB95E03DE0C4EB44121249114401F1A1
:1034700015006BA9FDF77CFB134890F8230008A901
:10348000085C012807D04FF0000A01200E4991F88E
:10349000231008AA50540348689901606999416053
:1034A00014E00000DD5B0020B83900209000040823
:1034B000C600040881440020FB3500209900040860
:1034C000A94F0020D8000408FF4200209DF8A81151
:1034D0000172BAF1000F5BD101F04AFD4FF0010A11
:1034E00056E0012E54D1002D29DBC5EB451147488C
:1034F000014400F60F40CA6802640A694264097D0B
:1035000080F84810C5EB451240481044C11C4048A3
:1035100017F044FFC5EB45123C48104400F115017B
:103520003B4830F0CFFF3A481B38A0F125010A6C28
:1035300002604A6C426091F84810017228E0C4EBC6
:1035400044113448014432484038CA6802640A6968
:103550004264097D80F84810C4EB44122D481044A1
:10356000C11C2B4817F01AFFC4EB44122948104421
:1035700000F11501264830F0A5FF25481B38A0F1C1
:1035800025010A6C02604A6C426091F84810017291
:1035900007F0010008B1FDF725FEFDF73FFC601CB8
:1035A000C4B21D48D0F8C50AA0423FF7CFAD1A48B3
:1035B00090F8610738B1194801685F9141686091DE
:1035C000007A8DF8840112481B3868990160699966
:1035D00041609DF8A81101722538659901646699CA
:1035E00041649DF89C1180F848107F306299016019
:1035F000639941609DF8901101720748A0F8A9876E
:10360000A0F893976EB0BDE8F0870000A94F0020A6
:10361000F85B002081440020B839002090000408A5
:103620002DE9F043DBB005464FF480716846FCF7A6
:10363000E5FDF7480168559141685691007A8DF88B
:103640005C01F3482538016C5291416C539190F81C
:1036500048008DF85001EE485A3001684F9141689A
:103660005091007A8DF84401EA48B0F8A987B0F883
:10367000939700269DBBE84801685891416859918D
:10368000007A8DF86801E44801684C9141684D91D9
:10369000007A8DF83801DE48363001684C91416877
:1036A0004D91007A8DF83801DC494CA817F076FE70
:1036B000DB48407800F0080028B99DF8300180F020
:1036C00080008DF83001D34890F86107002805D0BC
:1036D0009DF8300180F080008DF8300195E1FFE722
:1036E000022DFBD1CC480168589141685991007A6C
:1036F0008DF86801C84801684C9141684D91007A85
:103700008DF83801C248363001684C9141684D91BE
:10371000007A8DF83801002453E1BF4801684991CF
:1037200041684A91007A8DF82C01BB4801684691A6
:1037300041684791007A8DF82001B74801684391AC
:1037400041684491007A8DF81401B34801684091B2
:1037500041684191007A8DF80801C4EB4411B148E9
:103760000844008841F2883188427CDDC4EB441172
:10377000AC480844008842F21071884274DDC4EB02
:103780004411A84808440088A0F51C50113881B2A3
:10379000A048A0F8A9172AF0F7FF9E48B0F8B7177D
:1037A000A0F8931790F8850700F00200002863D076
:1037B00099480168499141684A91007A8DF82C0135
:1037C000994890F82B2400F6D4510DF22510FCF7FF
:1037D000FCFC91480168469141684791007A8DF858
:1037E0002001C4EB44118F48084450F8031F469150
:1037F00041684791007A8DF820019DF818018DF8F5
:10380000240185480168439141684491007A8DF80C
:10381000140107E049A946A830F054FE834943A8A3
:10382000FDF7A6F949A946A806F006FC0028F1DA3A
:1038300043A804F093F8002867D0774801684091C6
:1038400041684191007A8DF80801774890F82B245F
:1038500000F6C5510DF20110FCF7B7FC43A940A8D2
:1038600017F09CFD01E097E043E09DF8000180F037
:1038700080008DF8000148E0664890F8850700F068
:103880000400A8B364480168409141684191007AFE
:103890008DF80801644890F82B2400F6C5510DF20C
:1038A0000110FCF792FC04208DF800015A480168D1
:1038B000469141684791007A8DF82001C4EB44118C
:1038C0005848084450F8151F469141684791007ABE
:1038D0008DF8200146A940A817F060FD002140A8FE
:1038E0002CF0A0FE9DF8000180F080008DF8000112
:1038F0000BE0C4EB44114B4808440088A0F59850F5
:10390000893881B24348A0F893172AF0CDFB444888
:10391000407800F0400020B94148407800F0800035
:10392000C0B13F48407800F0400030B13C482F38EB
:1039300090F8220000F0400060B93948407800F06B
:10394000800030B136482F3890F8220000F0800017
:1039500000B934E0C4EB44113248084450F8151F54
:10396000589141685991007A8DF8680106F002007B
:1039700038B19DF8600180F080008DF8600126F07C
:10398000020658A922480930FDF7F2F840A920485C
:103990000930FDF7EDF811E0C4EB4411214808446B
:1039A000008840F22F11884207D0C4EB44111D4813
:1039B00008440088B0F5977F00D100E000BF601C8C
:1039C000C4B21448D0F8C50AA0423FF7A6AE1849C1
:1039D0004CA817F0E3FC0E4909314CA80BF03AF95A
:1039E0000F48407800F0080028B99DF8300180F0B9
:1039F00080008DF83001074890F8610728B19DF8E4
:103A0000300180F080008DF830010024D5E2000004
:103A1000DD5B0020B839002090000408C6000408CF
:103A20002E43002081440020FB350020990004082B
:103A3000D8000408FE480168499141684A91007A1B
:103A40008DF82C01FA480168469141684791007A47
:103A50008DF82001F6480168439141684491007A4D
:103A60008DF81401F2480168409141684191007A53
:103A70008DF80801C4EB4411EE480844008841F277
:103A8000883188427EDD26F00106C4EB4411E94806
:103A90000844008842F21071884274DD46F0010645
:103AA000C4EB4411E34808440088A0F51C501138C9
:103AB00081B2E148A0F8A9172AF066FEDE48B0F806
:103AC000B717A0F8931790F8850700F002000028B8
:103AD00063D0D7480168499141684A91007A8DF8CE
:103AE0002C01D64890F82B2400F6D4510DF2251065
:103AF000FCF76BFBCE480168469141684791007A1C
:103B00008DF82001C4EB4411CA48084450F8031F43
:103B1000469141684791007A8DF820019DF818017F
:103B20008DF82401C2480168439141684491007AAC
:103B30008DF8140107E049A946A830F0C3FCC0493C
:103B400043A8FDF715F849A946A806F075FA00281C
:103B5000F1DA43A803F002FF002867D0B4480168F7
:103B6000409141684191007A8DF80801B34890F87E
:103B70002B2400F6C5510DF20110FCF726FB43A9DA
:103B800040A801E06CE145E017F008FC9DF8000159
:103B900080F080008DF8000148E0A74890F8850784
:103BA00000F00400A8B3A248016840914168419127
:103BB000007A8DF80801A14890F82B2400F6C55131
:103BC0000DF20110FCF701FB04208DF8000198486C
:103BD0000168469141684791007A8DF82001C4EB55
:103BE00044119448084450F8151F46914168479184
:103BF000007A8DF8200146A940A817F0CFFB0021DC
:103C000040A82CF00FFD9DF8000180F080008DF899
:103C100000010BE0C4EB4411864808440088A0F57D
:103C20009850893881B28448A0F893172AF03CFA5A
:103C3000042D47D1834890F823001DF80000012887
:103C400006D0002701207F4991F823100DF80100CC
:103C50007D4855990160569941609DF85C1101724B
:103C600078482F30407800F0400058B975482F3020
:103C7000407800F0800028B9002F02D101F078F9D7
:103C8000012757E16F482F30407800F0400028B1FD
:103C90006C4890F8220000F0400068B969482F3065
:103CA000407800F080000028EBD0664890F82200B1
:103CB00000F080000028E4D0002FE2D101F058F994
:103CC000012737E15F482F30407800F0400028B9E5
:103CD0005C482F30407800F08000C0B159482F3048
:103CE000407800F0400028B1564890F8220000F0DB
:103CF000400060B953482F30407800F0800028B170
:103D0000504890F8220000F0800000B953E1012DE6
:103D10004BD1C4EB4411474801444B482538CA688D
:103D200002640A694264097D80F8481006F00200C6
:103D300038B19DF8600180F080008DF8600126F0B8
:103D40000206C4EB44123B481044C11C3E481B30E1
:103D500017F024FBC4EB44123648104400F115015F
:103D600039481B3030F0AEFB3748A0F125010A6C12
:103D700002604A6C426091F848100172C4EB441131
:103D80002C48014430485A3051F8032F02604A68E9
:103D90004260097A0172A0F27F2090F87F0280F0E1
:103DA00080012A4880F87F12C4E0C4EB4411214806
:103DB000084450F8151F589141685991007A8DF8C0
:103DC000680106F0020038B19DF8600180F08000C3
:103DD0008DF8600126F0020640A958A8FCF7C8FE3D
:103DE0004CA958A817F0DAFA194958A80AF032FF76
:103DF000002158A82CF016FC58A90120FDF782FDDF
:103E00001148253858990164599941649DF8681101
:103E100080F84810253058990160599941609DF803
:103E200068110172C4EB44120249114412E000000F
:103E30009000040881440020B8390020FB350020A0
:103E400099000408FF420020DD5B0020B8590020E3
:103E5000D800040801F1150058A9FCF789FE69E0B3
:103E6000C4EB44116F4808440088B0F5FA7F1FDDA9
:103E7000C4EB44116B4808440088B0F5FC7F17DCA4
:103E8000012D15D1C4EB4411664801446648CA6847
:103E900002640A694264097D80F84810253062494D
:103EA0000A6C02604A6C426091F84810017241E06D
:103EB000C4EB44115B4808440088B0F5FC7F0ADD80
:103EC000C4EB4411574808440088B0F5FE7F02DC7B
:103ED000012D00D16FE0C4EB441152480844008822
:103EE000B0F5FE7F0ADDC4EB44114E48084400885B
:103EF000B0F5FF7F02DC012D00D15CE0C4EB441182
:103F0000484808440088B0F5977F02D1042D00D0BE
:103F100051E0454845490A6802644A684264097AA2
:103F200080F84810253041490A6802604A684260BA
:103F3000097A01721DB93E4890F8610740B13A48CC
:103F40007F303A490A6802604A684260097A017221
:103F5000042D2FD0374890F820103748B0F8B60F0E
:103F6000814206DA334890F820103148A0F89517BE
:103F700003E000212E48A0F895172D4890F844073B
:103F8000082804D02A4890F84407092809D1FDF7E9
:103F900001F806F0010008B1FDF724F9FCF73EFF37
:103FA00008E0FCF7F7FF06F0010008B1FDF71AF989
:103FB000FCF734FF00BF601CC4B21D48D0F8C50A2E
:103FC000A0423FF737AD1A4890F8610738B117485B
:103FD00001684C9141684D91007A8DF83801124882
:103FE000253055990160569941609DF85C11017228
:103FF000253852990164539941649DF8501180F815
:1040000048107F304F990160509941609DF84411EC
:1040100001720748A0F8A987A0F893975BB0BDE8A4
:10402000F083000081440020B85B00209000040869
:10403000B8390020FF420020B82900202DE9F041C6
:1040400092B004464FF00008002700251CB9FE4935
:104050000020FDF757FC062C7DD1FB498739FA4833
:10406000FCF786FDF8492D3901F13600FCF780FD9B
:10407000F5485A3003F072FC002853D0F2498739D2
:1040800001F1A200FCF774FDEF495A31A1F13F00A4
:1040900030F018FAED4890F8460C00F00100C8B175
:1040A000EB4890F89304401E00EBC000E6499031C5
:1040B000095CE84880F80613E54991F89314491E15
:1040C00001EBC10100F54F728818A2F1360130F002
:1040D000F9F91EE0DD4890F8460C00F00200C0B18E
:1040E000DB4890F89304801E00EBC000D649903165
:1040F000095CD84880F80613D54991F89314891EB5
:1041000001EBC10100F54F728818A2F1360130F0C1
:10411000D9F9CD485A30D0490A6802604A684260ED
:10412000097A0172CD4890F86107002858D0C64836
:10413000633003F013FC002852D0C349873901F1E2
:10414000A200FCF715FDC0496331A1F1480030F031
:10415000B9F9C04800E046E090F80F63BB4890F81A
:10416000460C00F00100C8B1B94890F89304401E15
:1041700000EBC000B4499031095CB64880F80F13D9
:10418000B34991F89314491E01EBC10100F54F7238
:104190008818A2F12D0130F095F91EE0AB4890F897
:1041A000460C00F00200C0B1A94890F89304801EAC
:1041B00000EBC000A4499031095CA64880F80F13B9
:1041C000A34991F89314891E01EBC10100F54F72C8
:1041D0008818A2F12D0130F075F99E4880F80F6320
:1041E00012B0BDE8F081052C7ED1984890F8460CBD
:1041F00000F00100A8B3964890F89304801E00EBED
:10420000C00091499031084401680C9141680D91BA
:10421000007A8DF838008E4890F89304401E00EB29
:10422000C0008949903108440168069141680791AE
:10423000007A8DF82000482183489030FBF7DEFF9C
:10424000834890F89304801E00EBC0007E499031B3
:1042500008440C9901600D9941609DF83810017275
:104260003BE0FFE7794890F8460C00F00200A0B36D
:10427000774890F89304401E00EBC00072499031DB
:10428000084401680C9141680D91007A8DF838005E
:104290006F4890F89304801E00EBC0006A4990318B
:1042A00008440168069141680791007A8DF8200062
:1042B000482165489030FBF7A1FF654890F89304CA
:1042C000401E00EBC0006049903108440C99016029
:1042D0000D9941609DF8381001725F4801680C919A
:1042E00041680D91007A00E043E28DF838005748AC
:1042F00090F8450C38B1574890F8D90280F0800109
:10430000544880F8D912514890F8460C00F001004A
:10431000E8B14F4890F89304401E00EBC0004A49B2
:104320009031014448482D3002680A6042684A6072
:10433000007A0872464991F89314491E01EBC101B5
:10434000414A9032881806A9FCF712FC22E03F4847
:1043500090F8460C00F00200E0B13D4890F893045C
:10436000801E00EBC00038499031014436482D30A2
:1043700002680A6042684A60007A0872344991F81B
:104380009314891E01EBC1012F4A9032881806A9A7
:10439000FCF7EEFB3248807800F0100000287BD05C
:1043A00029482C38C16A0691016B079190F83400B6
:1043B0008DF8200024482D30016803914168049154
:1043C000007A8DF8140003A906A8FCF7D1FB1F485A
:1043D00090F8460C00F0100020BB2E201BF068FE69
:1043E0001D480168009141680191007A8DF808002C
:1043F000202240211B48FBF7FAFE1BA11948FBF7BE
:1044000040FF694617481AF01FFB2022402115483B
:10441000FBF7EDFE18A11348FBF733FF694611487F
:104420001AF012FB094890F8460C00F00100002831
:104430007ED0202240210B48FBF7D9FE11A109486C
:10444000FBF71FFF0CA928E0645C0020B86900207E
:10445000FB350020B859002090000408B83900202E
:10446000E38200208F76002056415441424C452083
:1044700053414C455300000056415420414D4F5587
:104480004E5400005A45524F205241544544205347
:10449000414C455300000000DBE0FE481AF0D4FA1E
:1044A00020224021FB48FBF7A2FEFBA1F948FBF7C5
:1044B000E8FEFE480168039141680491007A8DF896
:1044C0001400FA4806990160079941609DF8201090
:1044D000017203A906A82FF0F5FF06A9ED481AF00E
:1044E000B3FA20224021EB48FBF781FEF0A1E94816
:1044F000FBF7C7FEED483F3003F030FA28B1EB4937
:104500003F31A1F15A00FCF733FBE848BD380168A0
:104510000C9141680D91007A8DF83800E348AB3872
:104520000168009141680191007A8DF8080000E06F
:1045300026E0DE48BD3806990160079941609DF884
:1045400020100172123000F1A2010A6802604A686C
:104550004260097A01721C2005F04EF8D348BD383C
:104560000C9901600D9941609DF83810017212306C
:1045700000990160019941609DF80810017268E09E
:10458000CF4890F8460C00F00200002861D02022AD
:104590004021C048FBF72BFEAFF21811BD48FBF7D6
:1045A00070FE06A9BB481AF04FFA20224021B948F4
:1045B000FBF71DFEB8A1B748FBF763FE0CA9B54891
:1045C0001AF042FAB9483F3003F0C8F950B1B74881
:1045D0001E3000F121010A6882614A68C261097ACD
:1045E00080F82010B148BD380168039141680491FA
:1045F000007A8DF81400AD48AB380168009141682D
:104600000191007A8DF80800A848BD38069901602C
:10461000079941609DF8201001721230A9490A687B
:1046200002604A684260097A01721D2004F0E4FFCA
:104630009E48BD3803990160049941609DF81410AB
:104640000172123000990160019941609DF80810D3
:10465000017296490939A1F12D00FCF789FA9349B5
:104660000939A1F11B00FCF783FA9049093901F1DE
:104670001200FCF77DFA8D48093892490A680260F9
:104680004A684260097A0172B43801680C91416845
:104690000D91007A8DF838008448E238016C06915B
:1046A000416C079190F848008DF820007F483F3812
:1046B0000168039141680491007A8DF814007B48E9
:1046C000AB380168009141680191007A8DF80800CB
:1046D00076483F387B490A6802604A684260097A36
:1046E00001726C3877490A6802604A684260097A48
:1046F0000172123800F1C6010A6802604A6842601D
:10470000097A0172253800F1EB010A6802644A68EF
:104710004264097A80F84810FCF73CFC6348BD38D5
:104720000C9901600D9941609DF83810017225388F
:1047300006990164079941649DF8201080F848109B
:10474000A33003990160049941609DF8141001722F
:104750006C3800990160019941609DF80810017260
:10476000B43058490A6802604A684260097A0172A6
:1047700036E54E482438A0F13E01CA6A02600A6B51
:10478000426091F8341001724F4890F89304002869
:104790007ED04E4890F85107002879D100BF002103
:1047A0004A4880F87417FFE22AF0A8FA4848007CCB
:1047B00000F00800E8B1022D19D13C48BD380F992E
:1047C0000160109941609DF8441001723F4890F8D3
:1047D000740700EBC00035495A3101443348BD38F5
:1047E00002680A6042684A60007A087214E0012593
:1047F000D2E2022D00D1CFE2344890F8740700EBEA
:10480000C0002A495A3101442848BD380A6802606C
:104810004A684260097A01722448AB3829490A681B
:1048200002604A684260097A0172373825490A688D
:1048300002644A684264097A80F848102148016895
:10484000099141680A91007A8DF82C001748BD380B
:1048500003F084F800287DD01448633819490A68A9
:1048600002604A684260097A01721949B1F80D2064
:10487000A0F80120C97BC1701548007C00F0010040
:10488000002868D10948AB38A0F112010A6821E07C
:1048900002E300008F760020564154204558454DD4
:1048A00050542053414C4553000000009A5C0020B6
:1048B0005641542041444A5553544D454E540000EE
:1048C000B869002090000408FB350020B8390020AA
:1048D0000544002002604A684260097A017204219E
:1048E000A0F2372080F87F1200F27F2100F23720FB
:1048F00016F054FD0021FE482BF094FEFC490120E7
:10490000FDF700F8FA4901F18700FCF731F9022CB4
:1049100027D1F848807800F0100018B3F44901F16D
:104920007500FCF725F9F2480168099141680A9180
:10493000007A8DF82C009DF8240040F080008DF85E
:104940002400EB489030099901600A9941609DF874
:104950002C1001E0F9E01EE0017209A91230FCF709
:1049600007F9C2E0E4480168099141680A91007AB8
:104970008DF82C00E0480168069141680791007AA3
:104980008DF82000DC480168039141680491007AA9
:104990008DF81400A9E0032C01D0022CE1D1D448F9
:1049A000A0F112010A6802604A684260097A017245
:1049B00048304078992814D1CD48483080789928DB
:1049C0000FD1CB484830C07899280AD1C848373829
:1049D000C9490A6802644A684264097A80F8481042
:1049E00083E0C348373800F125010A6802644A6849
:1049F0004264097A80F84810C0497F30FCF7B8F863
:104A00000421BF4880F87F1200F27F2100F510706A
:104A10000AF020F9B64809302BF09CFEB449093160
:104A2000B3482FF04FFDB2490FA82FF04BFDB1480E
:104A3000807800F01000E0B3AD48123801680991A9
:104A400041680A91007A8DF82C00A9481238016853
:104A5000039141680491007A8DF81400A44848300D
:104A60000168069141680791007A8DF82000A049FD
:104A7000483106A805F0E0FA002836DC06A903A8AC
:104A80000AF0E8F803A82BF065FE03A909A82FF0A7
:104A900019FD9DF8240040F080008DF82400944911
:104AA000123901F1A200FCF763F809A99048A2307D
:104AB00000E002E0FCF75CF817E08F48016809911C
:104AC00041680A91007A8DF82C008B4801680691A4
:104AD00041680791007A8DF82000874801680391AA
:104AE00041680491007A8DF814000CB1042C2CD18B
:104AF0007F480168009141680191007A8DF80800B3
:104B0000804890F87407062804D07E4890F874070F
:104B1000072808D1764800F190010A6802604A68C7
:104B20004260097A0172FCF791FD774890F8460CD3
:104B300040F02001744880F8461C6D4800990160DF
:104B4000019941609DF8081001726948123802F01D
:104B500005FF20B96B4890F8740706287ED1022C17
:104B6000FCD16A48007C00F00200002877D0604841
:104B700002F0F4FE28B96548007C00F0040000282B
:104B8000F4D0614890F8460C40F010015E4880F87F
:104B9000461C2E201BF08CFA1B2004F02DFD5B48D8
:104BA000007C00F0100008B3AFF244715848FBF7E6
:104BB00068FB554890F8460C00F0080060B14E487C
:104BC0000168009141680191007A8DF808006946FA
:104BD0004F4819F039FF1CE04A4890F8740706283E
:104BE00005D1434909314A4819F02EFF11E04748E1
:104BF000007C00F0010028B93D491239444819F001
:104C000023FF06E03A490931414819F01DFF4FF0F2
:104C10000108202240213E48FBF7E9FA36480168A6
:104C20000C9141680D91007A8DF838003748B0F842
:104C30000D00ADF831003648AFF2C4710A68026069
:104C40004A684260098901810020314988742E48F0
:104C500090F8460C00F0080078B101E06CE09AE0B2
:104C600025480168009141680191007A8DF808009B
:104C70006946274819F0E8FE08E0224890F87407D2
:104C8000062803D01A49224819F0DEFE77BB1E48D9
:104C900090F8460C00F0010048BB1B4890F8460C09
:104CA00000F0020018BB14480168009141680191AE
:104CB000007A8DF80800202240211548FBF797FA6A
:104CC000AFF640011248FBF7DCFA6946104819F0CC
:104CD000BBFE202240210E48FBF789FAAFF2484183
:104CE0000B48FBF7CEFA6946094813E015E013E0DC
:104CF000EF5B0020E382002090000408BD00040860
:104D0000B8590020B8390020B869002005440020B7
:104D10008F76002019F098FE01278A48807800F0ED
:104D20001000C0B3202240218748FBF760FA87A11A
:104D30008548FBF7A6FA2EE0032C2CD18648007C90
:104D400000F00100F0B18448007C00F00200C8B11E
:104D5000824802F003FE20B97F48007C00F0040086
:104D600080B17E4912317C4819F06EFE7A48007C91
:104D700000F0100030B17A49D1F8680277491B3150
:104D800019F062FE7548123076490A6802604A6876
:104D90004260097A017200BF734890F87407401CA2
:104DA000C1B2714880F874176F4890F87417A0F278
:104DB000BD3090F893048142FFF6F6AC022C56D138
:104DC0006A4890F8460C00F01000E8BB674890F87D
:104DD000460C00F00100B8BB644890F8460C00F0A7
:104DE000020088BB2E201BF063F95E480168009129
:104DF00041680191007A8DF8080020224021524834
:104E0000FBF7F5F9AFF6A0114F48FBF73AFA694600
:104E10004D4819F019FE202240214B48FBF7E7F9D5
:104E2000AFF6AC114848FBF72CFA6946464819F032
:104E30000BFE202240214448FBF7D9F9AFF6BC1104
:104E40004148FBF71EFA00E011E069463E4819F0C0
:104E5000FBFD202240213C48FBF7C9F9AFF2C851C5
:104E60003948FBF70EFA6946374819F0EDFD012D78
:104E700010D13A4999310020FCF744FD3748993068
:104E800001680F9141681091007A8DF84400022565
:104E9000002784E400BF00BF3048F33002F05EFD1D
:104EA000F0B30CB1042C42D12C48123001680091AF
:104EB00041680191007A8DF808002C4890F8460C62
:104EC00000F0010088B10721274880F874172348B3
:104ED000123000F1C9018A690260CA69426091F822
:104EE00020100172FCF7B2FB16E0204890F8460C47
:104EF00000F0020080B106211B4880F874171748A3
:104F0000123000F1C9018A690260CA69426091F8F1
:104F100020100172FCF79AFB10481230009900E053
:104F200005E00160019941609DF8081001720E488A
:104F300090F8540720B9094999310020FCF7E2FCA8
:104F400000BF15E4E38200208F7600204C455353C8
:104F5000205641540000000005440020DD5B002085
:104F600094EE030890000408B8390020B8690020C6
:104F700010B58AB05D48407800F00400002853D195
:104F80005B480168019141680291007A8DF80C003C
:104F9000584901A816F002FA002442E053482F387D
:104FA00090F823000121A1400840C0B304EBC400E5
:104FB0004F49E13108440168079141680891007A3E
:104FC0008DF8240001A907A816F0E8F94A4907A8B6
:104FD00009F040FE002107A82BF024FB07A90120BF
:104FE000FCF790FC4148407800F0080028B99DF893
:104FF0001C0080F080008DF81C00404890F861078C
:1050000028B19DF81C0080F080008DF81C0004EB96
:10501000C401374AE132881807A9FBF7A9FD601CD3
:10502000C4B2082CBADB5FE03148633001680791F5
:1050300041680891007A8DF8240007A802F08EFCE0
:10504000002851D000244DE028482F3890F8230044
:105050000121A1400840002842D004EBC401244AA9
:10506000E132881802F07AFCD0B304EBC401204A84
:10507000E132881802F072FC90B304EBC4001C49C2
:10508000E13108440168049141680591007A8DF886
:105090001800194904A816F081F907A904A809F015
:1050A000D9FD1349363904A816F078F9124904A835
:1050B00009F0D0FD002104A82BF0B4FA9DF81000EF
:1050C00000F0FC008DF8100004A90120FCF71AFC88
:1050D00004EBC401064AE132881804A9FBF748FD35
:1050E000601CC4B2082CAFDB0AB010BD2E430020F8
:1050F000135C0020C6000408D8000408B83900205A
:105100000246914201DD00207047531A03EBD37031
:10511000C0F34700F8E700002DE9FC5F664F6748E1
:10512000007858B94FF0050800206449A1F805003F
:105130001820C8710846B0F808A004E05F48B0F82D
:1051400005A04FF00A084FF0000901E008F101083E
:1051500017F808000028F9D108F1010857484078ED
:10516000C0000C2190FBF1F0554908805348C078ED
:1051700088800C20C88018200881488100240020E5
:1051800001904E48B0F80500002861D0002048800A
:105190004A48B0F8055000264DE0A146785DA8B910
:1051A000474A5189474A10192022FBF720F8444802
:1051B0004089044400222046641C42490A546D1C64
:1051C0003F484088401C3E49488034E0785D0128D3
:1051D00001D1AD1C2FE000260AE039484089B042D9
:1051E00005DD7A5D2046641C36490A54761C6D1C28
:1051F00032480089A84202DD785D0028EDD16D1C9F
:10520000F0B2009005E020222046641C2D490A548B
:10521000761C2B484089B042F5DC2146641C294AA3
:105220000098505426484088401C254948800198E1
:10523000401CC0B2019021480089A842ADDC204842
:1052400040881F494989491C48431D49C86003E0FB
:1052500000201B494880C86025464FF000091EE029
:1052600009EB0806B85D98B9761C4FF0000B06E014
:1052700000222046641C13490A540BF1010BB85D4F
:10528000584502DDB4F5005FF2D309F1020906E0EA
:10529000BA5D2046641C0B490A5409F10109D14545
:1052A00002DAB4F5005FDBD30548C068611B08442F
:1052B0000349C860BDE8FC9F00F0036400F003648C
:1052C000A8A50020B8A5002010B5464890F8630CAA
:1052D00030B1012820D002283AD0032871D153E000
:1052E000414890F8430730B1012808D002280AD07D
:1052F00003280DD108E03D48FDF74AF80AE03B4895
:10530000FDF72EF806E005E03848FDF705F801E066
:10531000002010BD00BF56E0334890F8430730B17D
:10532000012805D002280BD003280DD104E00DE0A0
:105330002E48FCF7F1FF09E02C48FCF7EDFF00BF19
:105340002A48FDF701F801E00020E2E700BF3AE05B
:10535000254890F8430730B1012808D002280AD028
:1053600003280DD10BE02148FCF7FAFF00BF1F48CE
:10537000FDF70EF806E01D48FCF7F2FF02E001E041
:105380000020C6E700BF1EE0174890F8430730B181
:10539000012808D0022807D003280DD108E01348BF
:1053A000FCF7DEFF0AE009E01048FCF7B5FF05E076
:1053B0000E48FCF7C9FF01E00020AAE700BF02E0A9
:1053C000FFE70020A5E700BF094890F85B0200F066
:1053D000F801074880F85B120021034880F8431762
:1053E000012096E7B8290020B8390020135C00207E
:1053F000B859002010B5124890F8430730B1012881
:1054000008D002280AD003280DD108E00D48FCF787
:10541000BFFF0AE00B48FCF7A3FF06E005E00948E0
:10542000FCF77AFF01E0002010BD00BF0221064812
:1054300080F85B120021024880F843170120F3E74F
:10544000B8390020135C0020B859002070B504461C
:10545000257805F00F0020B1012806D002280CD1D4
:1054600007E02046FCF77CFF00BF2046FCF778FFF2
:1054700000BF2046FCF774FF00BF00BF257070BD61
:105480002DE9F04706460C4615461F46681E00F0FB
:105490000F010120884000F0FF080120304908700A
:1054A0003048007848B9207800EA080008B10120A7
:1054B00000E00020401C2B4908702A480078022890
:1054C00002DD01202749087026480078022808D10B
:1054D00087F079002449C871207840EA08002070DC
:1054E00007E087F06E002049C871207820EA0800A4
:1054F00020701D48C079792807D11C48D0F8501574
:105500001948401DFAF7BDFE06E01848D0F85415BA
:105510001548401DFAF7B5FE154890F8BA13002358
:105520001A460D202CF034FE104901EB8601086864
:10553000FF22002107F012FF05F0800068B10B493F
:1055400001EB86010868FAF77AFE814605F00F0044
:105550000123FF22494608F0F3FABDE8F087000076
:10556000BA020020B80200208F76002094EE0308D3
:10557000B869002010B500F007F8024890F8460717
:1055800010BD0000B839002010B513F041FD00280F
:1055900057D011F037FC0446412C3FDD482C13DA7C
:1055A0002948A0F88D4709E011F02CFC0446412C55
:1055B00004DD482C02DA2448A0F88D472248B0F8D0
:1055C0008D074228F0D03CE0482C0AD11E4890F8C4
:1055D0003F0710B300211C4880F83F17A0F891172F
:1055E0002FE0194890F83F07A0422AD0164880F8CB
:1055F0003F47A4F1480081B21348A0F89117B0F8D2
:105600009117A0F58050B0F8AF0D814219DD00214F
:105610000D48A0F8911780F83F1712E00B4890F85A
:10562000430CA0420DD1084890F85C07462808D0EA
:10563000054890F86F0720B91B21034880F84617EA
:1056400010BD00BFFCE70000B8390020B8290020D9
:105650002A4A92F8842C02F00F0100294CD0972896
:105660002ED008DC15280FD0812813D0822817D01F
:10567000852837D11EE09A2828D0CF282CD0E128C1
:105680002CD0F8282ED12BE0012901D15D2000E09B
:10569000402030E0022901D17D2000E07E202AE078
:1056A000012901D17B2004E0062901D15D2000E021
:1056B000602020E0062901D17B2000E040201AE094
:1056C000062901D1602000E07C2014E0022901D1EC
:1056D0005D2000E05E200EE024200CE07E200AE049
:1056E0005B2008E07F2805DDB02803DA00F07F02A8
:1056F000034B985C00BF00BF70470000B829002032
:105700007C0B040810B50446611CC8B20022114687
:1057100031F03AFC10BD0000F0B587B0044614B972
:10572000474890F84647FF2C0CD10020FCF75CFE60
:10573000434890F84607FF287FD10021404880F871
:1057400046177AE03F480078A0420DD1002C74D073
:105750003D480068002870D14FF4FA703A4908605B
:105760000120FCF741FE68E0022544B93548007885
:10577000002860D00021084635F05EFB5BE0AA1CE3
:10578000D1B2E8B235F058FB3049D1F8F002FAF75F
:1057900056FDC7B239461320FFF7B2FC401CC6B213
:1057A000EAB22A49D1F8F002314635F02CFB002C40
:1057B0001CDD642C1ADC04F1D301244A02EB8101C4
:1057C0000868FAF73CFDC7B239461320FFF798FC8A
:1057D000401CC6B2691CCAB204F1D3011B4B03EBD7
:1057E00081010868314635F00EFB1DE0152101A846
:1057F000FAF704FD1549D1F8F002FAF720FD064644
:105800001248D0F8F012324601A8FAF7DEFC214621
:1058100001A833F0D6F900208DF81700681CC2B239
:10582000092101A835F0EFFA4FF4FA700649086033
:105830000120FCF7D9FD0348047007B0F0BD00005B
:10584000B839002074020020E400002094EE030820
:1058500070B5FD4890F86257A0F5805090F8430C61
:10586000A84206D14FF4FA61F848A0F81D120020B2
:1058700070BDF548B0F88D0700F47F40B0F5706F4B
:1058800003D0F14890F8460708B10120F0E7F0484E
:10589000007858B10021ED4880F85B120822ED49EC
:1058A00000F517702EF088FD11F0C8F9284618F0A1
:1058B0004DFB08B10120DBE7E548007848B1E64838
:1058C0000078172805D1E5480078022801D1062480
:1058D00012E0E148007817280AD1E048007804284F
:1058E00006D10624DD480078401EDC49087003E03C
:1058F00028460EF0CFFD0446D34890F8360738B15D
:105900000E2C05D00021D04880F862170120AFE7A7
:10591000CD4890F85B0718B9CB4890F84D0758B1BF
:10592000102C09DACE48007B1F2805D00E21C6486E
:1059300080F8461701209BE7C5480078A8B9C248FF
:10594000B0F9830700280CDABF49B1F983070028B2
:1059500001DB014600E041420AB2BB49A1F88327BE
:1059600003E00021B848A0F88317E01E0C286FD28E
:10597000DFE810F0AC050C006205FD006E0061056B
:10598000AB0560046E006E006E006304AE48B0F8B4
:105990008D0700F47060D0B1AB48B0F88D0700F40B
:1059A0007060B0F5706F0CD011220821042003F054
:1059B00073FBAB48807A401EA7490978081AA649AC
:1059C00008704721A048A0F88D17012050E79E4895
:1059D000B0F88D07442804D09B48B0F88D074628BE
:1059E00037D1994890F82707401CC1B2964880F8F3
:1059F000271790F827079A490979884203DD012182
:105A0000914880F827179248007878B18E48B0F80E
:105A1000830730B18C48B0F98307914909798842EE
:105A200009DD0121884880F8461784E3864890F80C
:105A30002717A0F88317844890F8831780F8271752
:105A4000042008F0F7FD002003F096F901200FE78D
:105A5000EFE381480078002834DD80480078002892
:105A600030DD8048007800282CDD7F48007818B1B0
:105A700001207749087004E00121734880F8461737
:105A8000D3E779480078401C7749087001207549B0
:105A9000087008F0BFF908B90020E9E66A4890F8F4
:105AA000460770B9714B1A79714B93F8BA136F4B63
:105AB000987803F0F1FA6D488178FF226D4807F07D
:105AC0004DFCB2E76048B0F9830766281ADD5E48EE
:105AD000B0F983076C2815DA5B48B0F883076B28A8
