:020000040800F2
:10000000E8C0002045010008358C01083D45010885
:10001000A9890108A9280008358803080000000004
:1000200000000000000000000000000001F50208D0
:1000300055B2000800000000BDB20108A11D030870
:100040005F0100085F0100085F0100085F01000810
:100050005F0100085F0100085F0100085F01000800
:10006000C9F100085F0100085F0100085F01000896
:100070005F0100085F0100085F0100085F010008E0
:100080005F0100085F0100085F0100085F010008D0
:10009000397E03085F0100085F01000801F20008D3
:1000A0005F0100085F0100085F0100085F010008B0
:1000B0005F0100085F0100085F0100085F010008A0
:1000C0005F0100085F0100085F0100085F01000890
:1000D0005F01000885790308557A0308457B03080A
:1000E0005F0100085F0100082D7E03085F01000822
:1000F0005F0100085F0100085F0100085F01000860
:100100005F010008C1E802085F0100085F01000804
:100110005F0100085F010008B91F0308E920030818
:100120005F0100085F0100085F0100085F0100082F
:10013000DFF80CD000F0FCFA00480047E1AF0308FC
:10014000E8C000200648804706480047FEE7FEE773
:10015000FEE7FEE7FEE7FEE7FEE7FEE7FEE7FEE777
:10016000011E0308310100082DE9F05F054600205B
:1001700092469B4688460646814640241BE0284618
:1001800041464746224600F0D2F853465A46C01A26
:10019000914110D311461846224600F0B9F82D1AA5
:1001A00067EB01084F4622460120002100F0B0F81D
:1001B00017EB00094E41201EA4F10104DFDC484684
:1001C00031462A464346BDE8F09F40EA01039B07BB
:1001D00003D009E008C9121F08C0042AFAD203E0BC
:1001E00011F8013B00F8013B521EF9D27047D2B220
:1001F00001E000F8012B491EFBD270470022F6E710
:1002000010B513460A4604461946FFF7F0FF20468C
:1002100010BD421E12F8013F002BFBD111F8013B2B
:1002200002F8013B002BF9D1704710B5044604E0F9
:100230000B7800F8013B03B1491C521EF8D220464E
:1002400010BDCAB2401E10F8011F8A4202D0002918
:10025000F9D100207047421C10F8011B0029FBD186
:10026000801A704710B5002200E0521C835C8C5C41
:10027000A34201D1002BF8D1D8B2E1B2401A10BD8F
:1002800030B504460020034600E05B1C934203D2D5
:10029000E05CCD5C401BF8D030BD034611F8012B6B
:1002A00000F8012B002AF9D11846704730B50546F1
:1002B0000020034600E05B1C934205D2EC5CC85C66
:1002C000201A01D1002CF6D130BD70B5064639F0A8
:1002D000FDF8046805460A220021304600F037F890
:1002E0002C6070BD30B50B46014600202022012451
:1002F00009E021FA02F59D4205D303FA02F5491BF4
:1003000004FA02F52844151EA2F10102F1DC30BD09
:10031000202A04DB203A00FA02F1002070479140C5
:10032000C2F1200320FA03F3194390407047202ABA
:1003300004DB203A21FA02F00021704721FA02F38F
:10034000D040C2F1200291400843194670472DE980
:10035000F04791460F4680460446002614F8015B9C
:100360002DB100F009FA0068405DC007F6D12B2DD1
:1003700002D02D2D18D0641E4A463946204600F082
:10038000FFF927B13968A14201D1C7F80080710592
:100390004FF002040BD54042002803DD39F096F8F7
:1003A0000460A007BDE8F08746F48066E4E7002813
:1003B000F8DA39F08BF804606FF00040F2E72DE9CD
:1003C000FE4F804681EA0300C00F0C46009021F0EA
:1003D000004123F00045B8EB0200A94105D2404698
:1003E000214690461C460B46024623F0004010432F
:1003F00047D0270DC7F30A00C3F30A510290401AF1
:10040000019040286BDAC3F3130040F4801B00987E
:10041000924620B10023D2EB030A63EB0B0B019849
:100420005946C0F140025046FFF772FF06460D469E
:1004300050465946019A00F08DF910EB08006141D1
:10044000002487EA115284EAE7731A4340D0009AE5
:1004500062B3019A012A4FEA075215DC001B61EBD7
:1004600002014FF0004202EA0752CDE90042001CAF
:1004700041F5801132462B4600F0E0F903B0BDE8AB
:10048000F08F40462146F9E7001B61EB0201001C9A
:1004900041F5801300185B412018A2F5001747EBC7
:1004A000030140EAD570B6196D4111E06D084FEABD
:1004B000360645EAC0754FEA0752001B61EB0201A0
:1004C000001C41F5801149084FEA300000195141E4
:1004D00032462B4603B0BDE8F04F00F0A0B90098BB
:1004E000012240000023D0EB020263EBE07300988E
:1004F00021464FEAE074B8EB000061EB0401E9E744
:1005000083F000435BE781F0004158E72DE9FE4F9F
:1005100081EA030404F0004421F0004100944FF00C
:10052000000B23F0004350EA01045ED052EA0304BA
:100530005BD0C3F30A54C1F30A552C44A4F2F3343C
:100540000194A0FB0254C1F3130141F48011C3F3E1
:10055000130343F4801301FB024400FB034E840A9F
:10056000970A44EA815447EA8357A4FB0768029537
:100570008D0A05FB07854FEA932C04FB0C542705D5
:10058000029D4FEA065847EA1637B5EB08056EEBB1
:10059000070C870E920E47EA811742EA8312A7FBE7
:1005A0000201B6EB0B0164EB00042B0D43EA0C33A4
:1005B0005E1844EB1C50DA465146E7FB0201C5F3D6
:1005C00013044FEA0B3343EA14534FEA0432019CFD
:1005D00043EA0603A4F10C040294009CCDE900B4A4
:1005E00000F02CF903B0BDE8F08F00200146F9E7D8
:1005F0002DE9F04D81EA030404F0004B21F00045A1
:1006000014464FF0000A23F0004150EA050220D0C2
:1006100054EA01021DD0C5F30A570246C5F313037D
:10062000C1F31300C1F30A5640F4801543F480135C
:10063000A7EB0608101BD64608F2FD3873EB050041
:1006400002D308F1010801E092185B41B8F1000FF4
:1006500003DA00200146BDE8F08D00204FF4801140
:10066000064684460EE0171B73EB050705D3121BE5
:1006700063EB050306434CEA010C49084FEA3000DE
:1006800092185B4150EA0107EDD152EA030012D003
:1006900082EA040083EA0501084305D0101BAB4140
:1006A00006D20122002306E000224FF0004302E0C0
:1006B0006FF0010253101AEB06004CEB085110EBDF
:1006C0000A0041EB0B01BDE8F04D00F0A8B8C1F302
:1006D0000A52C1F3130140F2FF3341F480119A42F0
:1006E00002DA00200146704740F233439A42A2F2F8
:1006F000334202DC5242FFF71ABEFFF709BE000088
:1007000030B5041E71F1000404DB4FF00044404298
:1007100064EB0101141E73F1000405DB1C464FF06D
:100720000043524263EB0403994208BF904230BD3C
:10073000064C074D06E0E06840F0010394E807002E
:1007400098471034AC42F6D3FFF7F6FC6C2404084B
:100750008C240408202A06DBCB17203A41FA02F049
:1007600043EAE07306E041FA02F3D040C2F120020E
:10077000914008431946704700487047A006040896
:100780002DE9F05F82460078002715468B460AF176
:100790000104B946302801D09DB113E014F8010BD3
:1007A0000127782803D0582801D045B10AE00DB1BF
:1007B000102D07D10027102514F8010B02E00825A1
:1007C00000E00A250026B0460EE005FB080005FB08
:1007D00006F1012701EB10461FFA80F8B6F5803FBD
:1007E00000D3B94614F8010B294600F075F800282B
:1007F000EBDABBF1000F05D00FB1641E00E05446E8
:10080000CBF80040B9F1000F06D038F05FFE0221AE
:100810000160C81EBDE8F09F48EA0640FAE710B53F
:10082000141E73F1000408DA401C41F10001921813
:100830005B411A4301D120F0010010BD2DE9F04DBC
:1008400092469B4611B1B1FA81F202E0B0FA80F211
:1008500020329046FFF75CFD04460F4640EA0A004E
:1008600041EA0B0153465A46084313D0114653EA56
:10087000010019D0C8F140025046FFF758FD054667
:100880000E46504659464246FFF742FD084305D002
:10089000012004E020463946BDE8F08D00200543E4
:1008A00046EAE0762C4337430A986305E40AA0EB56
:1008B00008000022FD0A44EA47540A3002D500200D
:1008C0000146E9E7010510196941DDE9084500190C
:1008D0006941BDE8F04DA2E73A2800D2303820F057
:1008E0002002412A01D3A2F13700884201D34FF000
:1008F000FF30704770B58C1810F8015B15F00703D6
:1009000001D110F8013B2A1106D110F8012B03E0A8
:1009100010F8016B01F8016B5B1EF9D12B0705D4B0
:100920000023521E0DD401F8013BFAE710F8013BF9
:10093000CB1A921C03E013F8015B01F8015B521E15
:10094000F9D5A142D8D3002070BD000000B591B008
:1009500001214FF404702AF0A5FF012108462AF076
:1009600081FF4FF440402AF071FF26480AF0D6FA82
:100970002548019025480290002003900320049010
:10098000002005908020069040000790800008908D
:100990002020099000020A9000200B9001A919481C
:1009A0000AF062FB012117480AF0ACFA00200C9013
:1009B00001208DF834008DF835004FF460200E9042
:1009C00000200F9003208DF840000CA90E484C38F1
:1009D00000F034F8072301220E210B484C3800F0B8
:1009E00055F8072302220F2107484C3800F04EF833
:1009F00003231A460A2104484C3800F047F811B086
:100A000000BD0000080002404C2401408800002086
:100A100021B1826842F00102826003E0826822F024
:100A200001028260704721B1826842F48072826064
:100A300003E0826822F480728260704730B502461B
:100A40000020002350680F4C20400D790C6844EAC8
:100A500005242043506090680B4C2040D1E902549B
:100A60002C434D7944EA450420439060D06A20F439
:100A700070000C7C641EE4B2234340EA0350D06251
:100A800030BD0000FFFEF0FFFDF7F1FFF0B50446BA
:100A90000D4600200021092D11DDE068A5F10A06B0
:100AA00006EB4607072606FA07F18843A5F10A0672
:100AB00006EB460603FA06F10843E0600CE0206905
:100AC00005EB4507072606FA07F1884305EB4506BF
:100AD00003FA06F108432061072A0FDA606B561EFD
:100AE00006EB86071F2606FA07F18843561E06EB1B
:100AF000860605FA06F10843606322E00D2A0FDA44
:100B0000206BD61F06EB86071F2606FA07F18843DF
:100B1000D61F06EB860605FA06F10843206310E0AF
:100B2000E06AA2F10D0606EB86071F2606FA07F11A
:100B30008843A2F10D0606EB860605FA06F1084386
:100B4000E062F0BD21B1826842F4A002826003E05D
:100B5000826822F4A0028260704700002DE9F04113
:100B600005460E46287800F080004D490870307820
:100B700000F080004B490870287800F007004A49CF
:100B80000870307800F00700484908701121484883
:100B9000FFF734FB11214748FFF730FB4448D5F8F5
:100BA00001100160D5F8051041604248D6F80110E7
:100BB0000160D6F8051041603B4800783B49097850
:100BC00088420FDD07E039480078401C374908703B
:100BD000384801F05BF83448007834490978884295
:100BE000F1DC14E0304800783049097888420EDAA8
:100BF00007E02D480078401C2B4908702C4801F074
:100C000045F829480078294909788842F1DB07240A
:100C100025E02748005D2749095D884200DD20E086
:100C20002348005D2349095D884216DA002409E063
:100C30001F48075D1F48005D1D4908551D480755A1
:100C4000601C04B2082CF3DB1648077814480078BF
:100C5000144908701248077003E0601E04B2002CAB
:100C6000D7DA00BF0E4800780E490978884202D1D1
:100C700000F024F801E030F081FD094800780E49C9
:100C8000087009F03FFE0C48007828700848016899
:100C9000C5F801104068C5F80500BDE8F081000006
:100CA0000702002008020020090200200A0200209A
:100CB000641A0020751A00200602002070B5002179
:100CC0000024002030E01A4D2D5C05F00F05184E71
:100CD000365C361106EB860605EB4605EAB2154D85
:100CE0002D5C05F00F05134E365C361106EB8606BB
:100CF00005EB4605EBB2D5182544E9B2632904DDBE
:100D0000A1F16405E9B2012400E000240A2591FB69
:100D1000F5F605FB16150A2691FBF6F605EB06150A
:100D2000034E3554451C28B21028CCDB70BD0000A2
:100D3000641A0020751A002010B510F0B1FD174894
:100D400090F86902164909680844154908600021AD
:100D50001248613080F8A21A19E01048613090F80A
:100D6000A21A00F20A2000EBC10100F671300A68F5
:100D700002604968416000F0ADFA0848613090F8BF
:100D8000A20A401CC1B20548613080F8A21A03488B
:100D9000613090F8A20A0628DFDB10BD672A002028
:100DA0000002002010B510F08DFD174890F89E024B
:100DB0001649096808441549086000211248613045
:100DC00080F8A21A19E01048613090F8A21A00F2D7
:100DD0003F2000EBC10100F63C300A680260496820
:100DE000416000F077FA0848613090F8A20A401C90
:100DF000C1B20548613080F8A21A0348613090F80A
:100E0000A20A0628DFDB10BD672A002000020020AE
:100E100010B51A48B0F8C91A6138B0F8D00281424A
:100E20002BDA10F01BFE1548613890F8D4021449F3
:100E300009680844124908600021104880F8A21A85
:100E400016E00E4890F8A21A00F51E7000EBC101E2
:100E500000F603300A6802604968416000F03AFA1F
:100E6000064890F8A20A401CC1B2044880F8A21AB1
:100E7000024890F8A20A0628E3DB10BDC82A002029
:100E80000002002010B5204890F8220440F0200114
:100E90001D4880F8221410F031FE1C4890F80C0315
:100EA0001B49096808441A49086000211748613045
:100EB00080F8A21A19E01548613090F8A21A00F2E1
:100EC000AD2000EBC10100F6CE200A68026049683F
:100ED000416000F0FFF90D48613090F8A20A401C13
:100EE000C1B20A48613080F8A21A0848613090F80F
:100EF000A20A0628DFDB044890F8220420F0200133
:100F0000014880F8221410BDC85A0020672A00202A
:100F10000002002010B51A4890F87B1A613890F84A
:100F20003E0381422BDA10F0FBFD1548613890F842
:100F30004103144909680844124908600021104817
:100F400080F8A21A16E00E4890F8A21A00F2E220E9
:100F500000EBC10100F699200A680260496841600F
:100F600000F0B8F9064890F8A20A401CC1B2044843
:100F700080F8A21A024890F8A20A0628E3DB10BD06
:100F8000C82A00200002002010B53448D0F8E00044
:100F90003349086000213148613080F8A21A19E015
:100FA0002E48613090F8A21A00F2D51000EBC10172
:100FB00000F6A6300A6802604968416000F08AF9CC
:100FC0002648613090F8A20A401CC1B22348613023
:100FD00080F8A21A2148613090F8A20A0628DFDBC7
:100FE0000021204880F81C14A0F54050B0F8CB1A1E
:100FF0006138B0F8730381422FDA10F0D9FD174839
:1010000090F87703164909680844154908600021DB
:101010001248613080F8A21A19E01048613090F847
:10102000A21A00F5467000EBC10100F663200A68C1
:1010300002604968416000F04DF90848613090F85D
:10104000A20A401CC1B20548613080F8A21A0348C8
:10105000613090F8A20A0628DFDB10BD672A002065
:1010600000020020C85A00207CB52948448829483D
:1010700012F084FF274BDA78997818880EF011FA6D
:1010800025494881B4F5006F3DDA4FF4004000EB8C
:101090000415014601EB04101F4A0A32102139F0F1
:1010A0007FF91D490C8000204880009001904FF48A
:1010B000804101EBC4006A46082139F071F91448F7
:1010C0004088401C12494880C4F309041248008833
:1010D000B0F5806F04DA10480089B0F5804F09D070
:1010E0000D480088B0F5806F11DB0B480089B0F522
:1010F000C04F0CD108481A3000EBC40000990160C1
:101100000199416003E05A21044880F87C1A7CBDB3
:1011100003350020045F0020CB6B0020C82A00208C
:1011200010B511F0D1FC174890F8AF0316490968C3
:1011300008441549086000211248613080F8A21A5D
:1011400019E01048613090F8A21A00F5587000EBD1
:10115000C10100F61B200A6802604968416000F086
:10116000B9F80848613090F8A20A401CC1B205489D
:10117000613080F8A21A0348613090F8A20A06286C
:10118000DFDB10BD672A00200002002010B54FF001
:10119000FF3011F077FD174890F8C0031649096831
:1011A00008441549086000211248613080F8A21AED
:1011B00019E01048613090F8A21A00F5647000EB55
:1011C000C10100F6EB100A6802604968416000F056
:1011D00081F80848613090F8A20A401CC1B2054865
:1011E000613080F8A21A0348613090F8A20A0628FC
:1011F000DFDB10BD672A00200002002010B511F0CF
:1012000071FD174890F827041649096808441549E4
:10121000086000211248613080F8A21A19E01048D5
:10122000613090F8A21A00F2CD3000EBC10100F657
:10123000AE100A6802604968416000F04BF8084847
:10124000613090F8A20A401CC1B20548613080F8B4
:10125000A21A0348613090F8A20A0628DFDB10BD0D
:10126000672A00200002002010B511F0C5FD1748C4
:1012700090F861041649096808441549086000217E
:101280001248613080F8A21A19E01048613090F8D5
:10129000A21A00F2024000EBC10100F679100A68C0
:1012A00002604968416000F015F80848613090F824
:1012B000A20A401CC1B20548613080F8A21A034856
:1012C000613090F8A20A0628DFDB10BD672A0020F3
:1012D0000002002070B5934890F88D0A00B170BDEF
:1012E000904890F87B0D00B9F9E78F48407800B935
:1012F000F5E78C4890F8950A00B1F0E7002489489A
:1013000090F87B0D00F0010018B187484078204428
:1013100084B2844890F87B0D00F0020018B1824836
:101320004078204484B27F4890F87B0D00F00400A0
:1013300018B17D484078204484B27A4890F87B0DFB
:1013400000F0080018B178484078204484B225465F
:10135000744890F8A20A062864D2DFE800F0030679
:101360001D344B62002400255DE06E486138B0F802
:101370006C0100B9B3E76B486138B0F86C116130AB
:10138000B0F8C50A081A684385B26648B0F8C50ABD
:10139000401E604384B246E06248613890F8FD0424
:1013A00000B99CE75F48613890F8FD14613090F80F
:1013B000AF0A081A401E684385B25A4890F8AF0A2F
:1013C000604384B22FE05748613890F82E0500B989
:1013D00085E75448613890F82E15613090F8780A06
:1013E000081A401E684385B24E4890F8780A604358
:1013F00084B218E04B48613890F82F0500B96EE7C9
:101400004848613890F82F15613090F89A0A081A08
:10141000401E684385B2434890F89A0A604384B2FC
:1014200001E05CE700BF00BF4048006820443F493E
:1014300008603C4890F8A20AE8B93D4890F82204B8
:1014400000F02000B8B93B4806F096FB20B13949BE
:10145000A1F1E10030F0D2F9324890F8970A50B18A
:101460003448093006F088FB28B132490931A1F12E
:10147000EA0030F0C3F92B4890F87B0D00F0010032
:1014800008B100F065F9274890F87B0D00F00200E4
:1014900030B1274890F81B04012801D000F058F91A
:1014A000204890F87B0D00F0040008B100F050F9DE
:1014B0001C4890F87B0D00F0080008B100F048F9D6
:1014C0001A480068284419490860164890F8A20A8A
:1014D00028BB154840781A2803D10021144880F809
:1014E0001C14134890F8220400F02000B8B91148E9
:1014F00006F042FB20B10F49A1F1E100FFF72EFBFE
:10150000084890F8970A50B10A48093006F034FBB1
:1015100028B108490931A1F1EA00FFF71FFB00BF1C
:10152000DDE60000C82A0020433800200002002029
:10153000C85A0020045100203EB5204890F8830A84
:1015400000283AD11D4890F8800A022835D01B485F
:1015500090F88D0A00BB194890F8930A08B104244A
:1015600000E0002416480168009141680191007A6A
:101570008DF80800134890F8230400F0010060B1D2
:101580001148406DCDF8010010496846FFF7E6FAB2
:101590000D48DDF8011041650FE00B484D30204447
:1015A0000068CDF8010009496846FFF7D7FA0648F8
:1015B0004D302044DDF8011001603EBDC82A0020F6
:1015C00028FC0308C85A0020C834002031FC030856
:1015D00070B504460126244890F8AB0A44402248DE
:1015E00090F8AC0A444000250EE004EA060038B149
:1015F00005EBC5011D4A8818A2F21711FFF7AEFAD4
:101600007006060E681CC5B2082DEEDBBCB9184981
:1016100001F1FC00FFF7A2FA164890F81E0400F052
:10162000080060B1104890F8970A18B90E4890F871
:10163000810A20B10E4901F1F300FFF78FFA0C493E
:1016400001F18700FFF78AFA09495A3101F13600A2
:10165000FFF784FA044890F8AC1A80F8AD1A00211C
:1016600080F8AC1A70BD0000C82A00203A51002052
:1016700023500020C85A002010B512F05BFC174818
:1016800090F8960416490968084415490860002135
:101690001248613080F8A21A19E01048613090F8C1
:1016A000A21A00F2374000EBC10100F644100A68AC
:1016B000026049684160FFF70DFE0848613090F80C
:1016C000A20A401CC1B20548613080F8A21A034842
:1016D000613090F8A20A0628DFDB10BD672A0020DF
:1016E0000002002010B512F037FC174890F8CB0428
:1016F00016490968084415490860002112486130FC
:1017000080F8A21A19E01048613090F8A21A00F28D
:101710006C4000EBC10100F60F100A6802604968D6
:101720004160FFF7D7FD0848613090F8A20A401CDD
:10173000C1B20548613080F8A21A0348613090F8C0
:10174000A20A0628DFDB10BD672A00200002002065
:1017500010B5724890F8930A60B1704890F8A20AE8
:10176000012807D06E4840786E49096808446D49E1
:10177000086010BD6B4804682BF04EFB694804609C
:10178000664890F86F0A58B1674890F81C0438B959
:1017900037F0E0FD62484078204462490860BAE0D2
:1017A000614890F81B04002840D05D482B30C07E73
:1017B00000F0800060B15A482B3090F82D00584955
:1017C0002B31C8760846C07E40F08000C8760BE01A
:1017D00053482B3090F82D0051492B31C8760846DC
:1017E000C07E20F08000C8764D495831A1F112002A
:1017F000FFF7B4F94A493D314C4802680A60426833
:101800004A60007A08721239484802684A6242689F
:101810008A62007A81F82C0001F12D0043490A68A0
:1018200002604A684260097A017272E03E4890F8AC
:101830001C0448B13A48C07900286AD03C4938486D
:101840005830FFF78BF964E03548807890B1344820
:101850002B30407A00F0080060B9304890F8B10AA7
:1018600040B92E4890F8800A20B932492C482B30D4
:10187000FFF774F92A48C07868B129482B30407ABC
:1018800000F0830026492B31487229494831244809
:101890003430FFF763F92248007928B1244912391E
:1018A0001F483D30FFF75AF91D48407900B31C48E6
:1018B0000D38807838B9194890F8A20A18B9184834
:1018C00040781A2814D01A496C31154846302FF048
:1018D00095FF13482B30C07E00F0800040B11048C7
:1018E000463012490A6802604A684260097A017209
:1018F0000B48807928B10E49093109484F30FFF76C
:101900002DF90748C07920B1094905485830FFF73B
:1019100025F937F01FFD00BF2BE70000C82A002083
:101920004338002000020020C85A002028FC030889
:101930003550002031FC0308002070472DE9F041AC
:1019400006460C462EB92F4890F8FE0F00F00F0007
:1019500040B9002E53D02B4890F8FE0F00F0F00055
:1019600000284CD0277800202070264890F8FE0FE1
:1019700000F00F051DB9234890F8FE0F0509012D51
:1019800006D0022D12D0032D1FD0042D35D128E012
:10199000607800F00F00052803DB1B492046FFF7A5
:1019A000DDF8607800F0F000607026E065780020D7
:1019B0006070742D04DD15492046FFF7CFF803E071
:1019C000242D01DD5020607017E0607800F0F005F4
:1019D00000206070502D03DB0C492046FFF7BEF855
:1019E0000BE0607800F0F00500206070002D03DD52
:1019F00006492046FFF7B2F800BF00BF2770BDE8D8
:101A0000F0810000C81A00203AFC030843FC0308D8
:101A100010B504463148007830B920224F213048B3
:101A2000FEF7E5FB07F0C1FE2E4890F8BB0A00F078
:101A30001000002839D12F2C03D13020FFF7E8FF08
:101A400030242E2C1AD1274890F8790AA0B9012108
:101A5000244880F8791A2148007830BB302020498A
:101A600081F84D002E2081F84E00002081F84F00B3
:101A700002201A49087010BD0020FCE7194890F8B0
:101A8000790A90B1302C10DB392C0EDC154890F817
:101A9000790A032801DD0020EDE7124890F8790A61
:101AA000401CC1B20F4880F8791A0C48007828B160
:101AB0004E220B49491C481EFEF787FB084880F858
:101AC0004E400020064981F84F0004480078401C31
:101AD0000249087008460078CDE70000A102002006
:101AE0000D5F0020C82A002010B501460A12CBB2B3
:101AF00002F00F00141104EB840400EB440000EB2F
:101B0000C00404EB00104FF6FF7404EA800203F0F7
:101B10000F001C1104EB840400EB4400104480B25D
:101B200010BD00002DE9FF4782460C4691461D4638
:101B3000DDE90D780C9E134890F8C20F012802D001
:101B4000022812D108E02B464A460FA150468DE8E4
:101B5000D00137F095FC11E04B46224612A15046C9
:101B60008DE8E00137F08CFC08E04B462A4606A1E0
:101B700050468DE8D00137F083FC00BF00BFBDE8C0
:101B8000FF870000C81A0020253032782D2530321A
:101B9000782D32302530327820253032783A253091
:101BA00032783A25303278003230253032782D259F
:101BB0003032782D2530327820253032783A253071
:101BC00032783A25303278002DE9F0470346002577
:101BD0002846294606221CE09C5C992C16DC9C5C5D
:101BE00004F00F049D5C2D1105EB850504EB450405
:101BF0004FF0640C4FF000098046A8FB0C6A01FB13
:101C00000CA700FB0977A01947EBE471A2F10104CE
:101C100022B2002AE0DABDE8F08730B502460C4671
:101C20000023062113E0505C99280EDC505C00F084
:101C30000F00555C2D1105EB850500EB450003EB0E
:101C4000C30505EB031500EB8503481E01B200290F
:101C5000E9DA236098B230BD30B500240F3000219E
:101C600001E0401E491C102902DA0578002DF8D049
:101C700009E005782D072A0E05782B091D19057036
:101C80001446401E491C1029F3DB30BD30B500243A
:101C9000002109E005782D072A0E05782B09151972
:101CA00005701C46401C491C1029F3DB30BD014661
:101CB000072005E04A1C125C02B103E0421E10B28C
:101CC0000028F7DA00BF421C10B200280BDD421ECC
:101CD0004B1C9A5C0F2A04DA0122C2EB400210B2BC
:101CE00001E0420010B20A7802F080020AB1421C00
:101CF00010B2704708B501460020009003480090DC
:101D00000098084400900098008808BD006C0040CE
:101D100008B500220092044A0092009A0244009200
:101D2000009A116008BD0000006C004010B5044628
:101D30001448B0F8FF0800F4007008BB4CB1124919
:101D40001248B0F8010008800846007840F0800092
:101D500008700C4890F8FF0800F00100C0F1040082
:101D600002010A4951390A48FEF72FFA38F0CCFD32
:101D70000448B0F8FF0840F400710248A0F8FF18CA
:101D800010BD0000C84A0020D8010020C853002020
:101D90001416002010B50F4890F8DB0F00F0070470
:101DA0001CB10D4890F87C0A08B1002010BD611EDE
:101DB000C8B20DF023FB611EC8B205212DF041FE13
:101DC000002006490870064908700649088001206D
:101DD000ECE70000C81A0020C82A00207501002086
:101DE000740100207801002070B5B34890F8DB0F33
:101DF00000F007051DB1B14890F87C0A08B1002039
:101E000070BDE7E0691EC8B203F006FE30B1691E7E
:101E1000C8B22AF0E5F80446401C08B90020EFE7F4
:101E2000A7480088B8BB0020A6490870A6490870DA
:101E3000A6490870012C10D0022C12D0062C02D01A
:101E4000462C16D111E0691EC8B211212DF0F9FD02
:101E500002209F4908700020D2E702209C490870A8
:101E600009E000209A49087005E0012098490870AF
:101E700001E00020C4E700BF8F4890F8DB0F00F0BE
:101E800007009349097801F00F0140EA01118A48DF
:101E900080F8DB1F30E0FFE78D48007802282BD167
:101EA000042C1FD18748007880F003008549087012
:101EB0000846007848B987488078532805D1854876
:101EC000008840F2012188420BD0691EC8B20DF093
:101ED00095FA5521794880F87C1A002078490880C5
:101EE0008EE778E07648B0F90000012804DD7548F7
:101EF00000786040734908707348007838B17048C2
:101F0000B0F9000070490978401A012804DC7149D1
:101F10006B4AB2F900208C54302C01DB392C01DDE6
:101F20002E2C0AD16948007818B9654800786749AD
:101F30000870634800786449087061480088401C54
:101F400000B25F49088062480078012819D108462C
:101F500000880A2815D15D48007818B9084600782D
:101F60005A49087056480078574908702E2154483D
:101F7000B0F900200088401C00B2514B1880554831
:101F800081544F48B0F900001E2801DA0A2C03D111
:101F900000204B49088033E70D2C1BD14C480078BA
:101FA00018B94C480078022807D049480078012821
:101FB00004D148480078462800D10CE0691EC8B218
:101FC0000DF01CFA55213D4880F87C1A00203C4950
:101FD000088015E716E700BF002007F0C1F9691E69
:101FE000C8B20DF00BFA00203B4908703449088054
:101FF000002600253548007833490978884259DAA7
:102000003248047832E04EB93248005B43F2300186
:10201000884201D0012000E00020064626B30021BE
:102020002E48A0F855152B48055D2E2D06D12448C5
:10203000008818B901202249088008E0204800885B
:1020400028B11F480088401C00B21D4908801C4868
:10205000B0F90000042807DC2048A0F853550146D9
:10206000B1F8530514F02AFB601C04B2164800783E
:102070008442C8DD002012490880012000F0CEF91A
:102080000E48B0F8C30A842804D00C48B0F8C30A3C
:1020900086280FD100211148A0F8551540F2D471BF
:1020A000A0F853150121054880F87D1A22F008F8A0
:1020B0000120A5E60020A3E6C81A0020C82A0020B7
:1020C00078010020760100207501002074010020B5
:1020D0007A010020E8140020A4020020C84A002051
:1020E00070B5834890F8DD0F00F00705814890F83F
:1020F0007C0A90B97F48B0F8C30A83280DD07D4888
:10210000B0F8C30A8A2808D07A48B0F8C30A8728EA
:1021100005D1794800781E2801D0002070BD002626
:1021200079E05DB1691EC8B203F076FC30B1691E7A
:10213000C8B229F055FF0446401C08B90020EDE75D
:10214000E4B26E4801680068401C6C4A10606C483C
:10215000445410460068FE2803DB00201146086046
:10216000DCE70A2C11D006DC022C09D0032C31D07C
:10217000092C40D12DE00D2C2AD0242C3BD100E09D
:1021800000BF00205D490860C8E75C480068801E09
:102190005B49085C0D280AD158480068801E5749E1
:1021A000086000205649554A126888540EE053488A
:1021B0000068401E51490860002051494F4A12688A
:1021C00088544E48006808B90020A7E7012621E09E
:1021D00000BF00BF49480068401E48490860002011
:1021E0004749464A126888544448006808B90020A4
:1021F00094E701260EE0202C01DB7E2C09DD3F4810
:102200000068401E3D49086000203D493B4A126875
:10221000885400BF00BF002E83D0002007F0A0F834
:102220000020384908703348B0F8C30A87281CD109
:1022300031480078C8B92F4991F8A41A01F0040177
:1022400009B1062100E0042108462D4917F0DAF80B
:1022500007F0BAFA07F09AFA0422114628480BF060
:1022600041F800202549086058E7244800782649AD
:1022700008700020214908602449234A1278891AED
:10228000481E21490A781E49FDF79FFF0121194880
:1022900080F87E1A04F044FB1648B0F8C30A84287C
:1022A0001AD01448B0F8C30A862815D0002118485F
:1022B000A0F853150F4880F88C1AB0F8C30A892883
:1022C00004D114480078144908700FE0084890F8C9
:1022D000A50F1149087009E000210D48A0F8551517
:1022E00042F21071A0F8531521F0EAFE012015E723
:1022F000C81A0020C82A00209F0200207C0100206C
:1023000006150020A4020020A10200205D5F00202D
:10231000C84A0020AF0200209802002030B50246D3
:102320000B460020591E0EE0C40004EB4004555C2F
:1023300004EB2510C40004EB4004555C05F00F05C8
:1023400060194C1E21B20029EEDA30BD10B50446EA
:1023500011210948FDF752FF074854F8011F016099
:1023600061684160FFF778FC0348016821604068BC
:102370006060641E10BD0000641A0020D0F80220C6
:10238000C0F80120C288A0F80520017AC17100229E
:102390000272704710B5044611210948FDF72EFF5F
:1023A000074854F8011F016061684160FFF76EFC47
:1023B00003480168216040686060641E10BD000031
:1023C000641A0020072105E04A1E431C9B5C421C46
:1023D0005354491E0029F7DC002242707047000068
:1023E00008210C4A1160012803D10A210A4A1180F0
:1023F0000EE0022803D12821074A118008E00328B3
:1024000003D15021044A118002E00A21024A1180BE
:1024100070470000141401407600002000B5034608
:10242000D8B2FFF7DDFF002000BD00002DE9FC5F02
:102430008346894616461C46082E00D90826002CDD
:102440003ED02048D0F800A04FF00008601E04B233
:1024500029E0A5B205EB080085B26D1005FB09A0C7
:1024600018490860314668462AF068FC32466946D9
:10247000584608F003FA0746002F03DA2CB2601E14
:1024800004B210E037B10FFA85F808F101000FFA35
:1024900080F808E00B480068801B0A490860681C47
:1024A00080B2BDE8FC9FA045D3DD06480068801BD4
:1024B00004490860002F03DD0846006848440860AE
:1024C0000020EEE70002002010B588B00446204648
:1024D0001D2C7DD00CDCA0F10F000D2879D2DFE897
:1024E00000F0227878211C787878262A3834300059
:1024F000502832D006DC332821D03D2809D03F288F
:1025000067D109E0512867D052287DD05328F7D1F0
:10251000C1E0002008B010BDF1E014F0A1FB29F0EB
:102520005FF9ECE0EBE014F087FB0020F2E700201D
:102530000CF07AFFE3E001200CF076FFDFE00020F2
:10254000E8E70320FFF74CFFD9E00220FFF748FF40
:10255000D5E00120FFF744FFD1E001A838F081FE6B
:102560000798B0F5FA6F02DA0020079003E00798A9
:10257000A0F5FA6007900A21049890FBF1F201FBA4
:1025800012000A22049991FBF2F100EB01105D495F
:1025900008700A21069890FBF1F201FB12000A2252
:1025A000069991FBF2F100EB0110564948700A219F
:1025B000079890FBF1F201FB12000A22079991FBA8
:1025C000F2F100EB01104F4988700598C87001E0E6
:1025D0008DE08FE001209DE701A838F042FE0A213E
:1025E000039890FBF1F201FB12000A22039991FB80
:1025F000F2F100EB0110444908700A21029890FBA7
:10260000F1F201FB120000E017E00A22029991FBAF
:10261000F2F100EB01103C4948700A21019890FB4F
:10262000F1F201FB12000A22019991FBF2F100EB99
:1026300001103549887000206CE701A838F011FEC0
:102640003048807800F00F002E498978091101EB9D
:10265000810100EB410000F5FA60079029484078BD
:1026600000F00F0027494978091101EB810100EBC7
:10267000410006902348007800F00F0021490978B6
:10268000091101EB810100EB4100049001A838F031
:1026900014FE00203EE701A838F0E3FD1A48007858
:1026A00000F00F0018490978091101EB810100EBD6
:1026B000410003901448407800F00F001249497817
:1026C000091101EB810100EB410002900E48807876
:1026D00000F00F000C498978091101EB810100EB32
:1026E0004100019001A838F0E8FD002012E704F055
:1026F0000DFB0FE7214605A035F084FB00BF00BFAE
:10270000002007E70000002004000020436F6D6DEB
:10271000616E645F312025640A0000002DE9F84FE6
:102720008046894615461E46DDF828A031480068D7
:102730000090CB46A8F10104B8F1030F57DCBAF1C1
:10274000000F02D00020AAF80000D5B909E02EB190
:10275000284801680098081AB04202D90020BDE854
:10276000F88F04EB8410244901EB0010C06804EBDF
:102770008411214A02EB011189688842E7D00120C7
:10278000EDE7681C68B9002004EB84111A4A02EBDB
:102790000111886004EB841102EB0111C860012073
:1027A000DDE7B9F1000F11D104EB8410124901EB00
:1027B0000010C06804EB84110F4A02EB0111896814
:1027C000884201D00120CAE70020C8E700270AE0BC
:1027D00032465946404634F09BFD08B938B2BEE750
:1027E0000BF1010B7F1CAF42F2DB2846B7E700205C
:1027F000B5E70000E4000020140300202DE9F047B5
:1028000005460E4617469946B046032D0EDC0024B9
:1028100007E098F80010284634F016FF08F1010888
:10282000641CBC42F5DB0120BDE8F0870020FBE71B
:1028300070B5002500BF0E48806800F400544FF4C6
:102840007A7038F0F1FD0A48806800F40056B4420E
:1028500004D16D1C1CB1022D01DD02E00025322DDA
:10286000E9DB00BF0CB9012070BD0020FCE70000CF
:102870000010014030B5024600200FE00B78012423
:102880008440234023B13124431D064DEC5403E022
:102890003024431D034DEC54431C18B20828EDDBD3
:1028A00030BD0000775F002000BFFEE710B50320B9
:1028B0000EF09EFF08B1012010BD064890F84F01B0
:1028C00020F01400034981F84F01F52081F84E01F2
:1028D0000020F1E7BB3500202DE9F84F81468846FE
:1028E000404611F001FC002581E020214448FDF71D
:1028F00085FC4220424908700E204870414800780B
:1029000028448870B8F1060F02D0B8F1050F07D13E
:102910003B48C01C3C490A6802608988818006E007
:102920003748C01C39490A68026089888180344868
:10293000093037490A6802608988818002240027AB
:1029400004E02F48005D3844C7B2641C2C4840782E
:10295000401CA042F5DC2A484078401C28490F540E
:1029600002200CF04BFD0023102225490320FFF725
:1029700045FF4FF0000A00260EE000200090C6F14F
:10298000130002B21E48811932230320FFF7C6FE4E
:10299000304406B20AF1010ABAF10A0F01DA132E25
:1029A000EBDB0224002704E01548005D3844C7B281
:1029B000641C122CF8DB12480078422809D1104818
:1029C0004078112805D10E48807CB84201D1132EE1
:1029D00004DA00270020C9F800000DE0012709EB08
:1029E000051010220649891CFDF7EFFB6D1C0948F4
:1029F00000788542FFF679AF00BF3846BDE8F88F12
:102A0000A71A002075020020E6FF0308E0FF030874
:102A1000ECFF0308760200202DE9F84380460E46BD
:102A20000025304611F060FB002464E02021354889
:102A3000FDF7E4FB4220334908701E2048703248FD
:102A4000007820448870062E01D0052E07D12D482D
:102A5000C01C2E490A6802608988818006E02948E6
:102A6000C01C2B490A68026089888180254809308A
:102A700028490A6802608988818008EB04111022C5
:102A8000801DFDF7A2FB0227002504E01D48C05D64
:102A90002844C5B27F1C1B484078401CB842F5DC76
:102AA00018484078401C17490D5402200CF0A6FC31
:102AB0000023202213490320FFF7A0FE0A2516E079
:102AC0000020322303220F4900901046FFF726FE14
:102AD0000C480078422808D10A484078012804D1DF
:102AE00008488078592800D103E0681EC5B2002D3F
:102AF000E6D100BF641C08480078844296DB284673
:102B0000BDE8F883A71A002075020020E6FF03083D
:102B1000E0FF0308ECFF03087602002070B50446CE
:102B2000062038F0E1FC204638F0F2FC38F0D4FC06
:102B30000546102102480EF059FD284670BD0000E0
:102B40000008014010B5192038F0CEFC022037F003
:102B500037FF38F0C1FC044638F0BEFC04EB00201F
:102B600084B2102102480EF041FD204610BD000045
:102B70000008014070B50446402038F0B5FC00253F
:102B800005E038F0A9FC04F8010B681CC5B2062D5D
:102B9000F7DB102101480EF029FD70BD000801404F
:102BA00070B500250024272038F09EFC10210C4829
:102BB0000EF01CFD0FE00A2037F0F2FE00F07AF86C
:102BC0000446102C00D007E02846691CCDB2C82866
:102BD00001DDFA2070BDEEE700BF2046FAE70000F5
:102BE0000008014070B50446232038F07DFC002524
:102BF00005E014F8010B38F08BFC681CC5B2042DFD
:102C0000F7DB102101480EF0F1FC70BD0008014017
:102C100070B50446222038F067FC002505E014F862
:102C2000010B38F075FC681CC5B2042DF7DB1021D0
:102C300001480EF0DBFC70BD0008014070B5044691
:102C4000242038F051FC002505E014F8010B38F081
:102C50005FFC681CC5B2042DF7DB102101480EF0A3
:102C6000C5FC70BD0008014070B505460026002473
:102C70003D2038F039FC284638F04AFC10210C4839
:102C80000EF0B4FC0FE0052037F08AFE00F012F8D9
:102C90000446102C00D007E03046711CCEB2C82884
:102CA00001DDFA2070BDEEE700BF2046FAE7000024
:102CB0000008014010B52C2038F016FC38F00CFC50
:102CC0000446102102480EF091FC204610BD000081
:102CD000000801402DE9F04107460C4615460CB9A5
:102CE000BDE8F0813C2038F0FFFB384638F010FC9E
:102CF000E0B238F00DFC201238F00AFC012037F069
:102D00005FFE002605E038F0E7FB28706D1C701CA4
:102D100086B2A642F7DB102102480EF067FC00BF26
:102D2000DEE700000008014070B505463B2038F0A2
:102D3000DBFB284638F0ECFB38F0CEFB044638F0DD
:102D4000CBFB04EB002084B2102102480EF04EFCB5
:102D5000204670BD0008014070B50446302038F0B0
:102D6000C3FB204638F0D4FB022037F029FE38F0B0
:102D7000B3FB0546102102480EF038FC284670BD12
:102D80000008014010B56520FFF7C8FE04469A2CE4
:102D900001D0FA2010BD0948FFF73AFF0748001D8F
:102DA000FFF720FF05480830FFF748FF642037F0A1
:102DB000F7FDFFF7F5FE04462046EBE7A090002064
:102DC00010B50446582038F08FFB204638F0A0FBA1
:102DD00010BD10B50446562038F086FBE0B238F03E
:102DE00097FBC4F3072038F093FBC4F3074038F097
:102DF0008FFB200E38F08CFB10BD10B50446572019
:102E000038F072FBE0B238F083FBC4F3072038F0EF
:102E10007FFBC4F3074038F07BFB200E38F078FBD3
:102E200010BD000070B5054600260024352038F09E
:102E30005BFB284638F06CFB10210C480EF0D6FBEB
:102E40000FE0052037F0ACFDFFF734FF0446102CEF
:102E500000D007E03046711CCEB2C82801DDFA2050
:102E600070BDEEE700BF2046FAE700000008014011
:102E70002DE9F04107460D461446392038F034FB61
:102E8000384638F045FBE0B238F042FB201238F00B
:102E90003FFB002605E015F8010B38F039FB701CEC
:102EA00086B2A642F7DB102102480EF09FFBBDE878
:102EB000F08100000008014070B505460C46312045
:102EC00038F012FB284638F023FB14F8010B38F0D9
:102ED0001FFB14F8010B38F01BFB14F8010B38F042
:102EE00017FB14F8010B38F013FB102101480EF00A
:102EF0007DFB70BD0008014070B505460C463220D0
:102F000038F0F2FA284638F003FBE0B238F000FB64
:102F1000201238F0FDFA102101480EF067FB70BD59
:102F20000008014070B505460C46342038F0DCFA44
:102F3000284638F0EDFA204638F0EAFA1021024827
:102F40000EF054FB70BD00000008014070B505464E
:102F50000C46332038F0C8FA284638F0D9FAE0B2E7
:102F600038F0D6FA201238F0D3FA102101480EF0CA
:102F70003DFB70BD0008014010B525490020FFF75A
:102F80009BFF02210020FFF7CDFF2148818A00200E
:102F9000FFF7B2FF1E48C18A0020FFF7D7FF0020CD
:102FA000FFF740FF0446202C0AD10020FFF75CFE0B
:102FB0000446204637F0FCFF0020FFF733FF0446AD
:102FC000204637F0F5FF03210120FFF7ABFF114842
:102FD000C18A0120FFF7BAFF0120FFF723FF044653
:102FE000202C0AD10120FFF73FFE0446204637F08F
:102FF000DFFF0120FFF716FF0446204637F0D8FF19
:10300000012000F009F80446204637F0D1FF10BD3A
:10301000C49000208090002070B505460026002452
:10302000362038F061FA284638F072FA10210C4840
:103030000EF0DCFA0FE0052037F0B2FCFFF73AFEA5
:103040000446102C00D007E03046711CCEB2C828D0
:1030500001DDFA2070BDEEE700BF2046FAE7000070
:103060000008014000B587B00121080328F01AFCD0
:103070000121042028F016FC18208DF81B000320E5
:103080008DF81A00A020ADF8180006A920480EF00F
:10309000D7F904208DF81B004020ADF8180006A9D0
:1030A0001B480EF0CDF91020ADF818008DF81B006C
:1030B00003208DF81A0006A915480EF0C1F9102159
:1030C00013480EF093FA0020ADF804004FF482701C
:1030D000ADF806000020ADF80800ADF80A00ADF824
:1030E0000C004FF40070ADF80E000820ADF8100091
:1030F0000020ADF812000720ADF8140001A9054822
:103100002CF082F8012103482CF072F807B000BDC2
:1031100000080140003001400FB42DE9F047A6B08F
:1031200007464FF0000AD54801680F914168109199
:10313000007A8DF84400D1480168099141680A91EC
:10314000007A8DF82C00CD480168069141680791FE
:10315000007A8DF82000C948016803914168049104
:10316000007A8DF81400C54801680091416801910A
:10317000007A8DF80800BDF8BC0042F21071884258
:103180001FDABF48B0F8C95ABDF8BC00A0F5985086
:10319000893881B2BA48A0F8C91A2F2200F67D41B9
:1031A0001AA8FDF712F828F057FFB64890F823A0A8
:1031B000B348A0F8C95A2F221AA9B248FDF705F85A
:1031C000C8E0BDF8BC00A0F51C5011381FFA80F80B
:1031D000AB48B0F8C95AA0F8DF8A29F0A3FBA94888
:1031E000983090F82210A648A0F8C91A90F8BB0AA7
:1031F00000F00200002860D0A048016809914168F1
:103200000A91007A8DF82C009D48613890F82B24A3
:1032100000F6AE510DF12500FCF7D7FF9748016885
:10322000069141680791007A8DF82000DDF8BF0013
:103230000690DDF8C30007909DF8C7008DF82000C8
:103240009DF818008DF824008C48016803914168AE
:103250000491007A8DF8140007E009A906A82EF061
:10326000CDFA894903A8FDF779FC09A906A807F05A
:103270009FFA0028F1DA03A804F07EFC002857D05A
:103280007E480168009141680191007A8DF808003C
:103290007B48613890F82B2400F69F510DF1010016
:1032A000FCF793FF03A9684615F080FB9DF800002A
:1032B00080F080008DF800003AE0714890F8BB0A79
:1032C00000F00400A0B36D480168009141680191CD
:1032D000007A8DF808006A48613890F82B2400F6CF
:1032E0009F510DF10100FCF770FF04208DF80000E4
:1032F00062480168069141680791007A8DF82000C4
:10330000DDF8D1000690DDF8D50007909DF8D900D2
:103310008DF8200006A9684615F048FB0021684694
:103320002BF0AAF89DF8000080F080008DF80000D6
:103330002F2254491AA8FCF748FF28F08DFE514867
:1033400090F823A04E48A0F8C95A2F221AA94D4838
:10335000FCF73BFF0126002481E00AEA0600002872
:1033600079D0474890F8AA9A112200F6835115A8FF
:10337000FCF72BFF424880F8AA4A29F019FD3F4884
:103380000168129141681391007A8DF850003F480E
:10339000B0F80D10ADF84910C07B8DF84B003748E0
:1033A00001680F9141681091007A8DF8440032A8AD
:1033B00007C80FAB07C33548007C00F00100A8B96F
:1033C00004208DF8480012A90FA815F0EFFA00218B
:1033D0000FA82BF051F80FA90120FEF7AFFA9DF8C6
:1033E0003C0040F080008DF83C002CE00DF1BF0166
:1033F0000FA815F0DBFA00210FA82BF03DF80FA95C
:103400000120FEF79BFA9DF83C0020F080008DF82B
:103410003C0069460FA8FDF7A1FB0FA807C80CAB3D
:1034200007C31B4912A8FDF799FB04208DF848003B
:1034300012A90CA80BF062FB0CA82BF0B5F80CA994
:103440000FA82EF0DBF90E4880F8AA9A112215A9D0
:103450000E48FCF7BAFE7006060E601CC4B2082CBB
:10346000FFF67BAF0F983860109878609DF84400A5
:10347000387226B0BDE8F0075DF814FB28FC03089D
:10348000C82A00204537002031FC03084B380020B3
:1034900055FC03082DE9F047EEB006464FF4807165
:1034A00008A8FCF7ABFEFE48016868914168699185
:1034B000007A8DF8A801FA481B30016865914168CF
:1034C0006691007A8DF89C01F5485A300168629146
:1034D00041686391007A8DF89001F248B0F8DF8A74
:1034E000B0F8C99A002766BBEF4801686B91416844
:1034F0006C91007A8DF8B401EB4801685F914168E6
:103500006091007A8DF88401E548363001685F915A
:1035100041686091007A8DF88401E4495FA815F054
:1035200045FA9DF87C0180F080008DF87C01DD4833
:1035300090F8970A28B19DF87C0180F080008DF802
:103540007C01002422E2D84801685C9141685D91C9
:10355000007A8DF87801D4480168599141685A91F0
:10356000007A8DF86C01D0480168569141685791F6
:10357000007A8DF86001CC480168539141685491FC
:10358000007A8DF85401C848016850914168519102
:10359000007A8DF84801C4EB4411C54808440088FE
:1035A00041F2883188427CDDC4EB4411C0480844B4
:1035B000008842F21071884274DD47F00107C4EBC5
:1035C0004411BB4808440088A0F51C50113881B252
:1035D000B448A0F8DF1A29F0A5F9B248B0F8ED1AFE
:1035E000A0F8C91A002E64D190F8BB0A00F00200BE
:1035F00000285FD0AC4801685C9141685D91007A19
:103600008DF87801A748613890F82B2400F6AE5168
:103610000DF27110FCF7D9FDA3480168599141687A
:103620005A91007A8DF86C01C4EB4411A04808440B
:1036300050F8031F599141685A91007A8DF86C0136
:103640009DF864018DF870019748016856914168B2
:103650005791007A8DF8600107E05CA959A82EF017
:10366000CDF8944956A8FDF779FA5CA959A807F056
:103670009FF80028F1DA56A804F07EFA00285DD001
:1036800089480168539141685491007A8DF854013A
:103690008448613890F82B2400F69F510DF24D10AC
:1036A00001E071E13EE0FCF790FD56A953A815F04A
:1036B0007DF943E07B4890F8BB0A00F0040080B33A
:1036C00079480168539141685491007A8DF854010A
:1036D0007448613890F82B2400F69F510DF24D107C
:1036E000FCF773FD04208DF84C016F480168599177
:1036F00041685A91007A8DF86C01C4EB44116C4812
:10370000084450F8151F599141685A91007A8DF874
:103710006C0159A953A815F049F9002153A82AF0C2
:10372000ABFE0BE0C4EB4411614808440088A0F5EF
:103730009850893881B25B48A0F8C91A28F08CFCEF
:10374000C4EB44125A4811181F2248A8FCF73DFD4B
:1037500013224BA96846FCF738FD052048A90EC97D
:103760002DF02AFA0546002E7BD1002D31DBC5EB6A
:103770004512514811181F2248A8FCF726FD1322B4
:103780004BA96846FCF721FD05A848A90EC9FFF71B
:10379000C3FC05A807C850AB07C3C5EB4511464895
:1037A0000844C1686B9101696C91007D8DF8B4018A
:1037B000C5EB451240481044C11C6BA815F0F6F843
:1037C0009DF8AC018DF8400150A96BA82EF016F8B9
:1037D00012E0C4EB441136480844C1686B9101699A
:1037E0006C91007D8DF8B401C4EB44123048104454
:1037F000C11C6BA815F0DAF89DF8AC018DF84C01EE
:1038000053A96BA82DF0FAFF5FA96BA815F0CEF8AD
:103810002A496BA80BF072F900216BA82AF02CFE44
:103820006BA90120FEF78AF81D481B306B990160D7
:103830006C9941609DF8B41101721B386B9901605D
:103840006C9941609DF8B4110172002D0ADBC5EB43
:1038500045121949114401F115006BA9FDF77EF9D4
:103860008BE03AE0C4EB44121149114401F1150018
:103870006BA9FDF773F9124890F8230008A9085CBA
:10388000012807D04FF0000A01200D4991F82310BC
:1038900008AA50540248689901606999416011E092
:1038A00023500020C82A002028FC03085EFC0308DF
:1038B000C738002031FC0308EF43002070FC0308E8
:1038C000453700209DF8A8110172BAF1000F54D1BC
:1038D00001F030FD4FF0010A4FE0012E4DD1002DD7
:1038E00026DBC5EB45114348014400F64F40CA684A
:1038F00002600A694260097D0172C5EB45123D48CC
:103900001044C11C3C4815F051F8C5EB451239482C
:10391000104400F1150138482DF070FF36481B386F
:1039200035490A6802604A684260097A017224E0F7
:10393000C4EB4411314801442F48CA6802600A6947
:103940004260097D0172C4EB44122C481044C11C32
:10395000294815F02BF8C4EB44122848104400F114
:10396000150125482DF04AFF23481B3822490A68D3
:1039700002604A684260097A017207F0010008B1EA
:10398000FDF73CFCFDF744FA601CC4B21C48D0F8BB
:10399000FB0DA0423FF7D7AD194890F8970A38B110
:1039A000184801685F9141686091007A8DF8840140
:1039B00011481B3868990160699941609DF8A81108
:1039C00001721B3065990160669941609DF89C11F8
:1039D00001723F3062990160639941609DF89011D6
:1039E00001720748A0F8DF8AA0F8C99A6EB0BDE856
:1039F000F0870000EF4300203E500020C738002031
:103A0000C82A002028FC03082DE9F043DBB0054656
:103A10004FF480716846FCF7F1FBF8480168559156
:103A200041685691007A8DF85C01F4481B300168BA
:103A3000529141685391007A8DF85001EF485A3005
:103A400001684F9141685091007A8DF84401EC482B
:103A5000B0F8DF8AB0F8C99A00269DBBE948016832
:103A6000589141685991007A8DF86801E5480168DC
:103A70004C9141684D91007A8DF83801DF4836301D
:103A800001684C9141684D91007A8DF83801DE490A
:103A90004CA814F08BFFDD48407800F0080028B9EE
:103AA0009DF8300180F080008DF83001D44890F806
:103AB000970A002805D09DF8300180F080008DF82D
:103AC000300198E1FFE7022DFBD1CE480168589103
:103AD00041685991007A8DF86801CA4801684C9193
:103AE00041684D91007A8DF83801C448363001683C
:103AF0004C9141684D91007A8DF83801002456E1CF
:103B0000C0480168499141684A91007A8DF82C01BA
:103B1000BC480168469141684791007A8DF82001C0
:103B2000B8480168439141684491007A8DF81401C6
:103B3000B4480168409141684191007A8DF80801CC
:103B4000C4EB4411B2480844008841F288318842ED
:103B50007EDDC4EB4411AE480844008842F2107187
:103B6000884276DDC4EB4411A94808440088A0F5DA
:103B70001C50113881B2A248A0F8DF1A28F0D2FEFA
:103B80009F48B0F8ED1AA0F8C91A90F8BB0A00F0E7
:103B90000200002865D09B480168499141684A911C
:103BA000007A8DF82C019648613890F82B2400F6A5
:103BB000AE510DF22510FCF708FB924801684691C2
:103BC00041684791007A8DF82001C4EB4411904878
:103BD000084450F8031F469141684791007A8DF8D8
:103BE00020019DF818018DF8240186480168439151
:103BF00041684491007A8DF8140107E049A946A86C
:103C00002DF0FCFD834943A8FCF7A8FF49A946A86D
:103C100006F0CEFD0028F1DA43A803F0ADFF00283E
:103C200069D078480168409141684191007A8DF8E7
:103C300008017348613890F82B2400F69F510DF26B
:103C40000110FCF7C2FA43A940A814F0AFFE01E04E
:103C500098E044E09DF8000180F080008DF80001BC
:103C600049E0674890F8BB0A00F00400B0B365482B
:103C70000168409141684191007A8DF808016048DF
:103C8000613890F82B2400F69F510DF20110FCF7DB
:103C90009CFA04208DF800015A4801684691416859
:103CA0004791007A8DF82001C4EB4411584808442C
:103CB00050F8151F469141684791007A8DF8200110
:103CC00046A940A814F072FE002140A82AF0D4FBB7
:103CD0009DF8000180F080008DF800010BE0C4EB3E
:103CE00044114B4808440088A0F59850893881B2A7
:103CF0004348A0F8C91A28F0AFF94448407800F0CA
:103D0000400020B94148407800F08000C0B13F48F1
:103D1000407800F0400030B13C482F3890F8220045
:103D200000F0400060B93948407800F0800030B1C0
:103D300036482F3890F8220000F0800000B934E0B7
:103D4000C4EB44113248084450F8151F589141689B
:103D50005991007A8DF8680106F0020038B19DF89B
:103D6000600180F080008DF8600126F0020658A9FD
:103D700022480930FCF7F2FE40A920480930FCF740
:103D8000EDFE11E0C4EB441121480844008840F2E4
:103D90002F11884207D0C4EB44111D480844008805
:103DA000B0F5977F00D100E000BF601CC4B214489A
:103DB000D0F8FB0DA0423FF7A3AE17494CA814F072
:103DC000F5FD0E4909314CA80AF098FE0F484078DD
:103DD00000F0080028B99DF8300180F080008DF8CF
:103DE0003001074890F8970A28B19DF8300180F01B
:103DF00080008DF830010024CFE200002350002025
:103E0000C82A002028FC03085EFC03087437002041
:103E1000C738002031FC030870FC0308FE48016825
:103E2000499141684A91007A8DF82C01FA4801685D
:103E3000469141684791007A8DF82001F648016863
:103E4000439141684491007A8DF81401F248016869
:103E5000409141684191007A8DF80801C4EB44110A
:103E6000EE480844008841F2883188427EDD26F021
:103E70000106C4EB4411E9480844008842F210717D
:103E8000884274DD46F00106C4EB4411E34808445F
:103E90000088A0F51C50113881B2E148A0F8DF1A63
:103EA00028F040FDDE48B0F8ED1AA0F8C91A90F8E5
:103EB000BB0A00F00200002865D0D748016849918C
:103EC00041684A91007A8DF82C01D548613890F804
:103ED0002B2400F6AE510DF22510FCF776F9CE48F2
:103EE0000168469141684791007A8DF82001C4EB42
:103EF0004411CA48084450F8031F4691416847914D
:103F0000007A8DF820019DF818018DF82401C2482F
:103F10000168439141684491007A8DF8140107E0EB
:103F200049A946A82DF06AFCBE4943A8FCF716FE35
:103F300049A946A806F03CFC0028F1DA43A803F0A2
:103F40001BFE002869D0B448016840914168419146
:103F5000007A8DF80801B248613890F82B2400F6F9
:103F60009F510DF20110FCF730F901E06AE148E0E1
:103F700043A940A814F01AFD9DF8000180F08000CC
:103F80008DF8000149E0A64890F8BB0A00F0040053
:103F9000B0B3A1480168409141684191007A8DF821
:103FA00008019F48613890F82B2400F69F510DF2CC
:103FB0000110FCF70AF904208DF800019648016809
:103FC000469141684791007A8DF82001C4EB441175
:103FD0009248084450F8151F469141684791007A6D
:103FE0008DF8200146A940A814F0E0FC002140A86B
:103FF0002AF042FA9DF8000180F080008DF800015F
:104000000BE0C4EB4411854808440088A0F59850A3
:10401000893881B28248A0F8C91A28F01DF8042D09
:1040200047D1814890F823001DF80000012806D0F0
:10403000002701207C4991F823100DF801007B48EE
:1040400055990160569941609DF85C11017276485E
:104050002F30407800F0400058B973482F30407836
:1040600000F0800028B9002F02D101F063F9012788
:104070004FE16D482F30407800F0400028B16A4889
:1040800090F8220000F0400068B967482F3040786F
:1040900000F080000028EBD0634890F8220000F088
:1040A00080000028E4D0002FE2D101F043F901277D
:1040B0002FE15D482F30407800F0400028B95A4881
:1040C0002F30407800F08000C0B157482F30407842
:1040D00000F0400028B1544890F8220000F0400061
:1040E00060B951482F30407800F0800028B14E4828
:1040F00090F8220000F0800000B94CE1012D49D178
:10410000C4EB44114548014448481B30CA6802606A
:104110000A694260097D017206F0020038B19DF81B
:10412000600180F080008DF8600126F00206C4EB8B
:1041300044123A481044C11C3C481B3014F036FC71
:10414000C4EB44123548104400F1150137481B30C8
:104150002DF054FB354800F11B010A6802604A68E3
:104160004260097A0172C4EB44112C4801442F4883
:104170005A3051F8032F02604A684260097A01728E
:10418000A0F2B55090F8B50580F08001284880F87D
:10419000B515BEE0C4EB44112048084450F8151F83
:1041A000589141685991007A8DF8680106F0020033
:1041B00038B19DF8600180F080008DF8600126F034
:1041C000020640A958A8FCF7C9FC4CA958A814F04D
:1041D000EDFB184958A80AF091FC002158A82AF0D4
:1041E0004BF958A90120FDF7A9FB10481B3058993D
:1041F0000160599941609DF8681101721B38589906
:104200000160599941609DF868110172C4EB441234
:104210000249114410E0000028FC0308C7380020C0
:10422000C82A002031FC0308453700202350002015
:10423000C84A002070FC030801F1150058A9FCF7DA
:104240008DFC66E0C4EB44116D4808440088B0F56D
:10425000FA7F1DDDC4EB4411694808440088B0F5BD
:10426000FC7F15DC012D13D1C4EB441164480144DB
:104270006448CA6802600A694260097D01721B389D
:1042800060490A6802604A684260097A017240E047
:10429000C4EB44115A4808440088B0F5FC7F0ADD9D
:1042A000C4EB4411564808440088B0F5FE7F02DC98
:1042B000012D00D16FE0C4EB44115148084400883F
:1042C000B0F5FE7F0ADDC4EB44114D480844008878
:1042D000B0F5FF7F02DC012D00D15CE0C4EB44119E
:1042E000474808440088B0F5977F02D1042D00D0DC
:1042F00051E0444844490A6802604A684260097AC9
:1043000001721B3840490A6802604A684260097AB3
:1043100001721DB93D4890F8970A40B139483F30C5
:1043200039490A6802604A684260097A0172042DBC
:1043300030D0374890F82010A0F6DE40B0F8730374
:10434000814206DA324890F820103048A0F8CB1AA3
:1043500003E000212D48A0F8CB1A2C4890F87A0AE7
:10436000082804D0294890F87A0A092809D1FCF7CE
:104370000BFE06F0010008B1FCF740FFFCF748FD1A
:1043800008E0FCF701FE06F0010008B1FCF736FF7B
:10439000FCF73EFD00BF601CC4B21C48D0F8FB0D0A
:1043A000A0423FF73BAD194890F8970A38B116483C
:1043B00001684C9141684D91007A8DF8380111489F
:1043C0001B3855990160569941609DF85C11017246
:1043D0001B3052990160539941609DF85011017250
:1043E0003F304F990160509941609DF8441101722E
:1043F0000648A0F8DF8AA0F8C99A5BB0BDE8F08350
:10440000C73800203E50002028FC0308C82A00209E
:10441000453700202DE9F04192B004464FF00008E6
:10442000002700251CB9FE490020FDF787FA062C5D
:104430007ED1FB498739FA48FCF790FBF8492D39C2
:1044400001F13600FCF78AFBF5485A3003F094FB83
:10445000002854D0F249873901F1A200FCF77EFB15
:10446000EF495A31A1F13F002DF0C8F9ED4890F81D
:104470001E0400F00100C8B1EB4890F89304401E00
:1044800000EBC000E6499031095CE84880F83C1632
:10449000E54991F89314491E01EBC10100F27262E3
:1044A0008818A2F136012DF0A9F91EE0DD4890F838
:1044B0001E0400F00200C0B1DB4890F89304801E97
:1044C00000EBC000D6499031095CD84880F83C1612
:1044D000D54991F89314891E01EBC10100F2726273
:1044E0008818A2F136012DF089F9CD481E30D04947
:1044F0000A68C2634A680264097A80F84410CA48AC
:10450000613090F8970A002858D0C548633003F00E
:1045100033FB002852D0C249873901F1A200FCF7D1
:104520001DFBBF496331A1F148002DF067F900E0A0
:1045300047E0BE4890F84566BA4890F81E0400F07F
:104540000100C8B1B84890F89304401E00EBC000C9
:10455000B3499031095CB54880F84516B24991F8E5
:104560009314491E01EBC10100F272628818A2F196
:104570002D012DF043F91EE0AA4890F81E0400F02A
:104580000200C0B1A84890F89304801E00EBC00060
:10459000A3499031095CA54880F84516A24991F8D5
:1045A0009314891E01EBC10100F272628818A2F116
:1045B0002D012DF023F99D4880F8456612B0BDE825
:1045C000F081052C7ED1974890F81E0400F0010080
:1045D000A8B3954890F89304801E00EBC000904962
:1045E0009031084401680C9141680D91007A8DF872
:1045F00038008D4890F89304401E00EBC0008849B5
:10460000903108440168069141680791007A8DF85D
:104610002000482182489030FBF7F0FD824890F856
:104620009304801E00EBC0007D49903108440C9932
:1046300001600D9941609DF8381001723BE0FFE781
:10464000784890F81E0400F00200A0B3764890F875
:104650009304401E00EBC00071499031084401688A
:104660000C9141680D91007A8DF838006E4890F8F1
:104670009304801E00EBC000694990310844016832
:10468000069141680791007A8DF82000482164481E
:104690009030FBF7B3FD644890F89304401E00EBA4
:1046A000C0005F49903108440C9901600D99416048
:1046B0009DF8381001725E4801680C9141680D91B7
:1046C000007A00E03DE28DF83800564890F81D046D
:1046D00038B1564890F80F0680F08001534880F8B2
:1046E0000F16504890F81E0400F00100E8B14E4843
:1046F00090F89304401E00EBC000494990310144FA
:1047000047482D3002680A6042684A60007A0872A1
:10471000454991F89314491E01EBC101404A90327A
:10472000881806A9FCF71AFA22E03E4890F81E0401
:1047300000F00200E0B13C4890F89304801E00EBCA
:10474000C00037499031014435482D3002680A6075
:1047500042684A60007A0872334991F89314891EBE
:1047600001EBC1012E4A9032881806A9FCF7F6F930
:104770003048807800F01000002877D02848016881
:10478000069141680791007A8DF8200024482D3069
:104790000168039141680491007A8DF8140003A91F
:1047A00006A8FCF7DBF91F4890F81E0400F0100083
:1047B00020BB2E2019F00CFA1D48016800914168B9
:1047C0000191007A8DF80800202240211A48FBF759
:1047D0000EFD1AA11848FBF760FD6946164817F050
:1047E00075FB202240211448FBF701FD17A1124858
:1047F000FBF753FD6946104817F068FB094890F82D
:104800001E0400F0010000287ED0202240210A482A
:10481000FBF7EDFC10A10848FBF73FFD0CA926E0D3
:10482000AA500020C85A0020672A0020C84A002049
:1048300028FC0308CB6B0020775F002056415441D1
:10484000424C452053414C455300000056415420F2
:10485000414D4F554E5400005A45524F205241543D
:1048600045442053414C455300000000DCE0FD4826
:1048700017F02CFB20224021FA48FBF7B8FCFAA1E4
:10488000F848FBF70AFDFD4881690391C16904916D
:1048900090F820008DF81400F84806998161079976
:1048A000C1619DF8201080F8201003A906A82CF003
:1048B000A5FF06A9EB4817F009FB20224021E94893
:1048C000FBF795FCEEA1E748FBF7E7FCEB48573018
:1048D00003F052F928B1E9495731A1F15A00FCF728
:1048E0003DF9E648A53801680C9141680D91007AC0
:1048F0008DF83800E14893380168009141680191D2
:10490000007A8DF8080000E026E0DC48A53806991A
:104910000160079941609DF820100172123000F18A
:10492000A2010A6802604A684260097A01721C208A
:1049300005F0C4F9D148A5380C9901600D99416082
:104940009DF83810017212300099016001994160A0
:104950009DF80810017267E0CD4890F81E0400F041
:104960000200002860D020224021BE48FBF73FFC17
:10497000AFF21C11BB48FBF790FC06A9B94817F031
:10498000A5FA20224021B748FBF731FCB6A1B54873
:10499000FBF783FC0CA9B34817F098FAB7485730D7
:1049A00003F0EAF848B1B5484E3000F109010A6851
:1049B00002604A684260097A0172B048A53801680D
:1049C000039141680491007A8DF81400AB48933844
:1049D0000168009141680191007A8DF80800A748AC
:1049E000A53806990160079941609DF82010017271
:1049F0001230A8490A6802604A684260097A017266
:104A00001D2005F05BF99D48A538039901600499C4
:104A100041609DF8141001721230009901600199F3
:104A200041609DF80810017294490F31A1F12D00E9
:104A3000FCF794F891490F31A1F11B00FCF78EF8B7
:104A40008E490F3101F11200FCF788F88B480F30C6
:104A500090490A6802604A684260097A0172B43873
:104A600001680C9141680D91007A8DF838008348F7
:104A70008A380168069141680791007A8DF8200014
:104A80007E4827380168039141680491007A8DF8C7
:104A900014007A4893380168009141680191007AC6
:104AA0008DF80800754827387A490A6802604A6814
:104AB0004260097A01726C3876490A6802604A6875
:104AC0004260097A0172123800F1C6010A68026078
:104AD0004A684260097A01721B3000F1AB010A6832
:104AE00002604A684260097A0172FCF74DFA634835
:104AF000A5380C9901600D9941609DF8381001723C
:104B00001B3006990160079941609DF820100172E1
:104B1000633003990160049941609DF8141001729B
:104B20006C3800990160019941609DF8081001728C
:104B3000B43058490A6802604A684260097A0172D2
:104B40003CE54E48803800F162010A6842674A68D5
:104B50008267097A80F87C104F4890F89304002807
:104B60007ED04D48613090F8870A002878D100BF88
:104B700000214948613080F8AA1AFAE228F018F9B1
:104B80004648007C00F00800F0B1022D1AD13B48E5
:104B9000A5380F990160109941609DF84410017289
:104BA0003D48613090F8AA0A00EBC00033497231E9
:104BB00001443248A53802680A6042684A60007AB7
:104BC000087215E00125CCE2022D00D1C9E232487D
:104BD000613090F8AA0A00EBC00028497231014404
:104BE0002648A5380A6802604A684260097A01725C
:104BF0002248933827490A6802604A684260097A65
:104C00000172093023490A6802604A684260097AE1
:104C1000017220480168099141680A91007A8DF873
:104C20002C001648A53802F0A7FF00287ED01348B4
:104C30004B3818490A6802604A684260097A017272
:104C40001649B1F80D20A0F80120C97BC1701348A6
:104C5000007C00F00100002869D1084893381FE06B
:104C6000FFE20000775F0020564154204558454D33
:104C700050542053414C455300000000C8500020C0
:104C80005641542041444A5553544D454E5400001A
:104C9000C85A002028FC0308672A00204B3800204F
:104CA000A0F112010A6802604A684260097A017242
:104CB0000421A0F26D5080F8B51500F2B55100F254
:104CC0006D5013F073FE0021FE4829F0D5FBFD491D
:104CD0000120FCF733FEFB4901F18700FBF73EFFA3
:104CE000022C27D1F848807800F0100018B3F5495D
:104CF00001F17500FBF732FFF24801680991416844
:104D00000A91007A8DF82C009DF8240040F0800074
:104D10008DF82400EB489030099901600A994160B0
:104D20009DF82C10017209A9123001E0F3E01BE09C
:104D3000FBF714FFBFE0E5480168099141680A915B
:104D4000007A8DF82C00E1480168069141680791CE
:104D5000007A8DF82000DD480168039141680491D4
:104D6000007A8DF81400A6E0032C01D0022CE1D1CA
:104D7000D448A0F112010A6802604A684260097AC8
:104D8000017248304078992813D1CE484830807855
:104D900099280ED1CB484830C078992809D1C94804
:104DA0000930CA490A6802604A684260097A017299
:104DB00081E0C4480930A0F11B010A6802604A681A
:104DC0004260097A0172C2493F30FBF7C7FE0421F5
:104DD000C04880F8B51500F2B55100F2765009F0E0
:104DE0008DFEB848093029F0DFFBB6490931B548D6
:104DF0002CF004FDB3490FA82CF000FDB2488078D8
:104E000000F01000F0B3AF48123801680991416812
:104E10000A91007A8DF82C00AA4812380168039193
:104E200041680491007A8DF81400A6484830016862
:104E3000069141680791007A8DF82000A149483118
:104E400006A805F0B5FC002835DC06A903A809F082
:104E500055FE03A829F0A8FB03A909A82CF0CEFC55
:104E60009DF8240040F080008DF824009549123907
:104E700001F1A200FBF772FE09A99248A230FBF7EC
:104E80006DFE18E0FFE791480168099141680A91B9
:104E9000007A8DF82C008D480168069141680791D1
:104EA000007A8DF8200089480168039141680491D7
:104EB000007A8DF814000CB1042C2CD181480168C3
:104EC000009141680191007A8DF80800824890F8BD
:104ED000AA0A062804D0804890F8AA0A072808D110
:104EE000784800F190010A6802604A684260097AD5
:104EF0000172FCF7C1FB794890F81E0440F02001D4
:104F0000764880F81E146F4800990160019941604D
:104F10009DF8081001726B48123802F02DFE20B97E
:104F20006D4890F8AA0A06287ED1022CFCD16C4864
:104F3000007C00F00200002877D0624802F01CFEDE
:104F400028B96748007C00F004000028F4D06348CA
:104F500090F81E0440F01001604880F81E142E20C6
:104F600018F036FE1B2004F0A9FE5D48007C00F01E
:104F7000100008B3AFF23C715A48FBF78EF957485E
:104F800090F81E0400F0080060B1504801680091DC
:104F900041680191007A8DF808006946514816F081
:104FA00095FF1CE04C4890F8AA0A062805D145490F
:104FB00009314C4816F08AFF11E04948007C00F0A6
:104FC000010028B93F491239464816F07FFF06E034
:104FD0003C490931434816F079FF4FF0010820227F
:104FE00040214048FBF703F9384801680C914168BB
:104FF0000D91007A8DF838003948B0F80D00ADF801
:1050000031003848AFF2BC710A6802604A684260F9
:1050100009890181002033498874304890F81E04C2
:1050200000F0080078B101E06BE099E027480168E2
:10503000009141680191007A8DF80800694629487D
:1050400016F044FF08E0244890F8AA0A062803D086
:105050001C49244816F03AFF87BB204890F81E04EC
:1050600000F0010048BB1D4890F81E0400F002004B
:1050700018BB16480168009141680191007A8DF8CB
:105080000800202240211748FBF7B1F8AFF638019D
:105090001448FBF702F96946124816F017FF202260
:1050A00040211048FBF7A3F8AFF244410D48FBF74D
:1050B000F4F869460B4816F009FF0127024880788A
:1050C00012E0000035500020CB6B002028FC0308C4
:1050D00055FC0308C84A0020C82A0020C85A0020EE
:1050E0004B380020775F002000F01000C0B3202272
:1050F00040218648FBF77BF885A18448FBF7CDF873
:105100002EE0032C2CD18548007C00F00100F0B18A
:105110008248007C00F00200C8B1814802F02CFDFA
:1051200020B97E48007C00F0040080B17C49123137
:105130007A4816F0CBFE7948007C00F0100030B1C0
:105140007849D1F8540276491B3116F0BFFE7448F5
:10515000123075490A6802604A684260097A017231
:1051600000BF724890F8AA0A401CC1B26F4880F88C
:10517000AA1A6E4890F8AA1A613890F893048142EE
:10518000FFF6FCAC022C56D1694890F81E0400F0E2
:105190001000E8BB664890F81E0400F00100B8BBA0
:1051A000634890F81E0400F0020088BB2E2018F01F
:1051B0000FFD5D480168009141680191007A8DF80A
:1051C0000800202240215148FBF711F8AFF6941156
:1051D0004E48FBF762F869464C4816F077FE2022ED
:1051E00040214A48FBF703F8AFF6A0114748FBF708
:1051F00054F86946454816F069FE2022402143488C
:10520000FAF7F5FFAFF6B0114048FBF746F800E0BB
:1052100011E069463D4816F059FE202240213B48E6
:10522000FAF7E5FFAFF2C0513848FBF736F86946A8
:10523000364816F04BFE012D11D139499931002025
:10524000FCF77CFB36482530416F0F91816F109140
:1052500090F87C008DF844000225002788E400BF08
:1052600000BF2F48F33002F087FCE8B30CB1042CE8
:1052700040D12B4812300168009141680191007AB9
:105280008DF808002A4890F81E0400F0010080B153
:105290000721264880F8AA1A2148123000F1E101BE
:1052A0000A6802604A684260097A0172FCF7E4F910
:1052B00015E01F4890F81E0400F0020078B10621A6
:1052C0001A4880F8AA1A1648123000F1E1010A685B
:1052D00002604A684260097A0172FCF7CDF9104811
:1052E00012300099016000E004E0019941609DF8EE
:1052F000081001720D4890F88A0A20B908499931BE
:105300000020FCF71BFB00BF1AE40000775F0020C1
:105310004C45535320564154000000004B380020A8
:1053200023500020CEEA030828FC0308C82A0020E6
:10533000C85A002010B58AB05E48407800F00400DA
:10534000002853D15C480168019141680291007ABC
:105350008DF80C00594901A813F028FB002442E005
:1053600054482F3890F823000121A1400840C0B3D1
:1053700004EBC4005049E1310844016807914168D9
:105380000891007A8DF8240001A907A813F00EFBFC
:105390004B4907A809F0B2FB002107A829F06CF8D7
:1053A00007A90120FCF7CAFA4248407800F008003B
:1053B00028B99DF81C0080F080008DF81C00414841
:1053C00090F8970A28B19DF81C0080F080008DF8B5
:1053D0001C0004EBC401384AE132881807A9FBF726
:1053E000BDFB601CC4B2082CBADB60E03248113847
:1053F000416F0791816F089190F87C008DF824002F
:1054000007A802F0B9FB002851D000244DE029483C
:105410002F3890F823000121A1400840002842D0F5
:1054200004EBC401244AE132881802F0A5FBD0B392
:1054300004EBC401204AE132881802F09DFB90B3CE
:1054400004EBC4001C49E13108440168049141683F
:105450000591007A8DF81800194904A813F0A6FAEE
:1054600007A904A809F04AFB1349363904A813F028
:105470009DFA134904A809F041FB002104A828F073
:10548000FBFF9DF8100000F0FC008DF8100004A94F
:105490000120FCF753FA04EBC401074AE1328818F3
:1054A00004A9FBF75BFB601CC4B2082CAFDB0AB09D
:1054B00010BD000074370020595000205EFC030826
:1054C00070FC0308C82A00200246914201DD00203A
:1054D0007047531A03EBD370C0F34700F8E700009E
:1054E00010B5464890F8BF0F30B1012820D00228EF
:1054F0003AD0032871D153E0414890F8790A30B18D
:10550000012808D002280AD003280DD108E03D4820
:10551000FCF758FF0AE03B48FCF73CFF06E005E0DB
:105520003848FCF713FF01E0002010BD00BF56E033
:10553000334890F8790A30B1012805D002280BD001
:1055400003280DD104E00DE02E48FCF7FFFE09E032
:105550002C48FCF7FBFE00BF2A48FCF70FFF01E0D8
:105560000020E2E700BF3AE0254890F8790A30B120
:10557000012808D002280AD003280DD10BE02148C9
:10558000FCF708FF00BF1F48FCF71CFF06E01D48A2
:10559000FCF700FF02E001E00020C6E700BF1EE0CC
:1055A000174890F8790A30B1012808D0022807D0AE
:1055B00003280DD108E01348FCF7ECFE0AE009E0EF
:1055C0001048FCF7C3FE05E00E48FCF7D7FE01E0EB
:1055D0000020AAE700BF02E0FFE70020A5E700BF28
:1055E000094890F8910500F0F801074880F89115F6
:1055F0000021034880F8791A012096E7C81A002094
:10560000C82A002059500020C84A002010B512486E
:1056100090F8790A30B1012808D002280AD003286E
:105620000DD108E00D48FCF7CDFE0AE00B48FCF771
:10563000B1FE06E005E00948FCF788FE01E0002025
:1056400010BD00BF0221064880F8911500210248D4
:1056500080F8791A0120F3E7C82A00205950002069
:10566000C84A002070B50446257805F00F0020B127
:10567000012806D002280CD107E02046FCF78AFE5C
:1056800000BF2046FCF786FE00BF2046FCF782FEE6
:1056900000BF00BF257070BD0EB5284890F94E01BF
:1056A000002802DA4FF0FF300EBD002028F0BAFFCC
:1056B0002248D0F842010A21B0FBF1F201FB1200AE
:1056C0001E4981F8490102200FF0B8F803200FF0BD
:1056D000B5F8022219499031684634F011FF184993
:1056E0006846FBF73BFA022269461448903009F0FD
:1056F0006DFE04200FF0A2F8FF21104880F82A1058
:1057000001200FF09BF80F210C48CE3028F057FFF6
:105710000A4981F8DD0004210A48FDF77DF910B936
:105720006FF00800C0E705210648FDF775F910B9CC
:105730000120FCF773FE0120B6E70000BB35002016
:1057400031FC0308D93600202DE9F04706460C4607
:1057500015461F46681E00F00F010120884000F02A
:10576000FF080120304908703048007848B9207897
:1057700000EA080008B1012000E00020401C2B498D
:1057800008702A480078022802DD012027490870A5
:1057900026480078022808D187F07900244948710A
:1057A000207840EA0800207007E087F06E0020496A
:1057B0004871207820EA080020701D484079792837
:1057C00007D11C48D0F83C151948C01CFAF765FDF4
:1057D00006E01848D0F840151548C01CFAF75DFDE2
:1057E000154890F8011900231A460A202AF0A4FA55
:1057F000104901EB86010868FF22002107F072FDC5
:1058000005F0800068B10B4901EB86010868FAF7E2
:1058100022FD814605F00F000123FF22494608F0D2
:105820004BF9BDE8F0870000A2020020A002002092
:10583000775F0020CEEA0308C84A002010B500F0C8
:1058400007F8024890F87C0A10BD0000C82A002022
:1058500010B510F0D5FE002856D00EF017FD044606
:10586000412C3EDD802C13DA2848A0F8C34A09E019
:105870000EF00CFD0446412C04DD802C02DA234896
:10588000A0F8C34A2148B0F8C30A8328F0D03BE00F
:10589000802C0AD11D4890F8750A08B300211B48D6
:1058A00080F8751AA0F8C71A2EE0184890F8750A03
:1058B000A04229D0154880F8754AA4F1800081B231
:1058C0001248A0F8C71AB0F8C71A6138B0F86C01CE
:1058D000814219DD00210D48A0F8C71A80F8751A19
:1058E00012E00B4890F89F0FA0420DD1074890F8A6
:1058F000920A8A2808D0054890F8A50A20B91B21E9
:10590000024880F87C1A10BD00BFFCE7C82A0020BE
:10591000C81A00207FB500216846FCF7DDFF054668
:10592000CDB100240BE01DF8041004FB04F00A3094
:105930000A4A105C41400DF80410601C04B2042CAB
:10594000F1DB009E0648D0F84201B04201D10120AF
:1059500000E000200546E8B204B070BD170004085E
:10596000BB3500202A4A92F8E02F02F00F010029EF
:105970004CD097282ED008DC15280FD0812813D0C2
:10598000822817D0852837D11EE09A2828D0CF2822
:105990002CD0E1282CD0F8282ED12BE0012901D1E0
:1059A0005D2000E0402030E0022901D17D2000E0B0
:1059B0007E202AE0012901D17B2004E0062901D1C3
:1059C0005D2000E0602020E0062901D17B2000E07E
:1059D00040201AE0062901D1602000E07C2014E07C
:1059E000022901D15D2000E05E200EE024200CE0C1
:1059F0007E200AE05B2008E07F2805DDB02803DA7E
:105A000000F07F02034B985C00BF00BF70470000AE
:105A1000C81A0020B005040810B50446611CC8B2BD
:105A20000022114631F074FC10BD0000F0B585B0C5
:105A3000044614B9474890F87C4AFF2C0CD100204A
:105A4000FCF7ECFC434890F87C0AFF2803D10021C6
:105A5000404880F87C1A7BE03F480078A0420DD196
:105A6000002C75D03D480068002871D14FF4FA70C1
:105A70003A4908600120FCF7D1FC69E0002544B9EF
:105A800035480078002861D00021084635F098F8A4
:105A90005CE0AA1CD1B2E8B235F092F83049D1F8F6
:105AA000DC02FAF7D8FBC7B239460E20FFF70CFD2F
:105AB000401CC6B2EAB22A49D1F8DC02314635F0C0
:105AC00066F8002C1CDD642C1ADC04F1CE01244A9B
:105AD00002EB81010868FAF7BEFBC7B239460E2017
